{
  "contractName": "CSBD",
  "abi": [
    {
      "constant": true,
      "inputs": [
        {
          "name": "",
          "type": "uint256"
        }
      ],
      "name": "CEDStructArray",
      "outputs": [
        {
          "name": "id",
          "type": "uint256"
        },
        {
          "name": "cid",
          "type": "string"
        },
        {
          "name": "fullname",
          "type": "string"
        },
        {
          "name": "coursename",
          "type": "string"
        },
        {
          "name": "issuedOn",
          "type": "string"
        },
        {
          "name": "validUntil",
          "type": "string"
        }
      ],
      "payable": false,
      "stateMutability": "view",
      "type": "function"
    },
    {
      "constant": true,
      "inputs": [],
      "name": "owner",
      "outputs": [
        {
          "name": "",
          "type": "address"
        }
      ],
      "payable": false,
      "stateMutability": "view",
      "type": "function"
    },
    {
      "constant": true,
      "inputs": [],
      "name": "CED",
      "outputs": [
        {
          "name": "id",
          "type": "uint256"
        },
        {
          "name": "cid",
          "type": "string"
        },
        {
          "name": "fullname",
          "type": "string"
        },
        {
          "name": "coursename",
          "type": "string"
        },
        {
          "name": "issuedOn",
          "type": "string"
        },
        {
          "name": "validUntil",
          "type": "string"
        }
      ],
      "payable": false,
      "stateMutability": "view",
      "type": "function"
    },
    {
      "constant": false,
      "inputs": [
        {
          "name": "newOwner",
          "type": "address"
        }
      ],
      "name": "transferOwnership",
      "outputs": [],
      "payable": false,
      "stateMutability": "nonpayable",
      "type": "function"
    },
    {
      "constant": true,
      "inputs": [],
      "name": "CEDID",
      "outputs": [
        {
          "name": "",
          "type": "uint256"
        }
      ],
      "payable": false,
      "stateMutability": "view",
      "type": "function"
    },
    {
      "inputs": [],
      "payable": false,
      "stateMutability": "nonpayable",
      "type": "constructor"
    },
    {
      "anonymous": false,
      "inputs": [
        {
          "indexed": true,
          "name": "previousOwner",
          "type": "address"
        },
        {
          "indexed": true,
          "name": "newOwner",
          "type": "address"
        }
      ],
      "name": "OwnershipTransferred",
      "type": "event"
    },
    {
      "constant": false,
      "inputs": [
        {
          "name": "_cid",
          "type": "string"
        },
        {
          "name": "_fullname",
          "type": "string"
        },
        {
          "name": "_coursename",
          "type": "string"
        },
        {
          "name": "_issuedOn",
          "type": "string"
        },
        {
          "name": "_validUntil",
          "type": "string"
        }
      ],
      "name": "setCED",
      "outputs": [],
      "payable": false,
      "stateMutability": "nonpayable",
      "type": "function"
    },
    {
      "constant": true,
      "inputs": [
        {
          "name": "i",
          "type": "uint256"
        }
      ],
      "name": "getCEDStructByID",
      "outputs": [
        {
          "name": "",
          "type": "uint256"
        },
        {
          "name": "",
          "type": "string"
        },
        {
          "name": "",
          "type": "string"
        },
        {
          "name": "",
          "type": "string"
        },
        {
          "name": "",
          "type": "string"
        },
        {
          "name": "",
          "type": "string"
        }
      ],
      "payable": false,
      "stateMutability": "view",
      "type": "function"
    },
    {
      "constant": true,
      "inputs": [
        {
          "name": "_cid",
          "type": "string"
        }
      ],
      "name": "getCEDStructsByCID",
      "outputs": [
        {
          "name": "",
          "type": "uint256"
        },
        {
          "name": "",
          "type": "string"
        },
        {
          "name": "",
          "type": "string"
        },
        {
          "name": "",
          "type": "string"
        },
        {
          "name": "",
          "type": "string"
        },
        {
          "name": "",
          "type": "string"
        }
      ],
      "payable": false,
      "stateMutability": "view",
      "type": "function"
    },
    {
      "constant": true,
      "inputs": [],
      "name": "countCEDStruct",
      "outputs": [
        {
          "name": "",
          "type": "uint256"
        }
      ],
      "payable": false,
      "stateMutability": "view",
      "type": "function"
    },
    {
      "constant": true,
      "inputs": [],
      "name": "getlastCED",
      "outputs": [
        {
          "name": "_id",
          "type": "uint256"
        },
        {
          "name": "_cid",
          "type": "string"
        },
        {
          "name": "_fullname",
          "type": "string"
        },
        {
          "name": "_coursename",
          "type": "string"
        },
        {
          "name": "_issuedOn",
          "type": "string"
        },
        {
          "name": "_validUntil",
          "type": "string"
        }
      ],
      "payable": false,
      "stateMutability": "view",
      "type": "function"
    }
  ],
  "bytecode": "0x608060405260006008553480156200001657600080fd5b50336000806101000a81548173ffffffffffffffffffffffffffffffffffffffff021916908373ffffffffffffffffffffffffffffffffffffffff160217905550606060405190810160405280602481526020017f436572746966696365642053656e696f7220426c6f636b636861696e2050726f81526020017f6772616d0000000000000000000000000000000000000000000000000000000081525060099080519060200190620000cb929190620000d2565b5062000181565b828054600181600116156101000203166002900490600052602060002090601f016020900481019282601f106200011557805160ff191683800117855562000146565b8280016001018555821562000146579182015b828111156200014557825182559160200191906001019062000128565b5b50905062000155919062000159565b5090565b6200017e91905b808211156200017a57600081600090555060010162000160565b5090565b90565b61278180620001916000396000f3006080604052600436106100a4576000357c0100000000000000000000000000000000000000000000000000000000900463ffffffff16806304277446146100a957806330724d951461022a57806352f95c4c1461025557806362b2dd3e146104b25780638a4ec673146106f95780638da5cb5b14610956578063ca6060c3146109ad578063cbfd4bf014610c46578063f2fde38b14610e8d578063f30490b014610ed0575b600080fd5b3480156100b557600080fd5b50610228600480360381019080803590602001908201803590602001908080601f0160208091040260200160405190810160405280939291908181526020018383808284378201915050505050509192919290803590602001908201803590602001908080601f0160208091040260200160405190810160405280939291908181526020018383808284378201915050505050509192919290803590602001908201803590602001908080601f0160208091040260200160405190810160405280939291908181526020018383808284378201915050505050509192919290803590602001908201803590602001908080601f0160208091040260200160405190810160405280939291908181526020018383808284378201915050505050509192919290803590602001908201803590602001908080601f0160208091040260200160405190810160405280939291908181526020018383808284378201915050505050509192919290505050610efb565b005b34801561023657600080fd5b5061023f611101565b6040518082815260200191505060405180910390f35b34801561026157600080fd5b506102806004803603810190808035906020019092919050505061110e565b60405180878152602001806020018060200180602001806020018060200186810386528b818151815260200191508051906020019080838360005b838110156102d65780820151818401526020810190506102bb565b50505050905090810190601f1680156103035780820380516001836020036101000a031916815260200191505b5086810385528a818151815260200191508051906020019080838360005b8381101561033c578082015181840152602081019050610321565b50505050905090810190601f1680156103695780820380516001836020036101000a031916815260200191505b50868103845289818151815260200191508051906020019080838360005b838110156103a2578082015181840152602081019050610387565b50505050905090810190601f1680156103cf5780820380516001836020036101000a031916815260200191505b50868103835288818151815260200191508051906020019080838360005b838110156104085780820151818401526020810190506103ed565b50505050905090810190601f1680156104355780820380516001836020036101000a031916815260200191505b50868103825287818151815260200191508051906020019080838360005b8381101561046e578082015181840152602081019050610453565b50505050905090810190601f16801561049b5780820380516001836020036101000a031916815260200191505b509b50505050505050505050505060405180910390f35b3480156104be57600080fd5b506104c7611451565b60405180878152602001806020018060200180602001806020018060200186810386528b818151815260200191508051906020019080838360005b8381101561051d578082015181840152602081019050610502565b50505050905090810190601f16801561054a5780820380516001836020036101000a031916815260200191505b5086810385528a818151815260200191508051906020019080838360005b83811015610583578082015181840152602081019050610568565b50505050905090810190601f1680156105b05780820380516001836020036101000a031916815260200191505b50868103845289818151815260200191508051906020019080838360005b838110156105e95780820151818401526020810190506105ce565b50505050905090810190601f1680156106165780820380516001836020036101000a031916815260200191505b50868103835288818151815260200191508051906020019080838360005b8381101561064f578082015181840152602081019050610634565b50505050905090810190601f16801561067c5780820380516001836020036101000a031916815260200191505b50868103825287818151815260200191508051906020019080838360005b838110156106b557808201518184015260208101905061069a565b50505050905090810190601f1680156106e25780820380516001836020036101000a031916815260200191505b509b50505050505050505050505060405180910390f35b34801561070557600080fd5b5061072460048036038101908080359060200190929190505050611799565b60405180878152602001806020018060200180602001806020018060200186810386528b818151815260200191508051906020019080838360005b8381101561077a57808201518184015260208101905061075f565b50505050905090810190601f1680156107a75780820380516001836020036101000a031916815260200191505b5086810385528a818151815260200191508051906020019080838360005b838110156107e05780820151818401526020810190506107c5565b50505050905090810190601f16801561080d5780820380516001836020036101000a031916815260200191505b50868103845289818151815260200191508051906020019080838360005b8381101561084657808201518184015260208101905061082b565b50505050905090810190601f1680156108735780820380516001836020036101000a031916815260200191505b50868103835288818151815260200191508051906020019080838360005b838110156108ac578082015181840152602081019050610891565b50505050905090810190601f1680156108d95780820380516001836020036101000a031916815260200191505b50868103825287818151815260200191508051906020019080838360005b838110156109125780820151818401526020810190506108f7565b50505050905090810190601f16801561093f5780820380516001836020036101000a031916815260200191505b509b50505050505050505050505060405180910390f35b34801561096257600080fd5b5061096b611b9e565b604051808273ffffffffffffffffffffffffffffffffffffffff1673ffffffffffffffffffffffffffffffffffffffff16815260200191505060405180910390f35b3480156109b957600080fd5b50610a14600480360381019080803590602001908201803590602001908080601f0160208091040260200160405190810160405280939291908181526020018383808284378201915050505050509192919290505050611bc3565b60405180878152602001806020018060200180602001806020018060200186810386528b818151815260200191508051906020019080838360005b83811015610a6a578082015181840152602081019050610a4f565b50505050905090810190601f168015610a975780820380516001836020036101000a031916815260200191505b5086810385528a818151815260200191508051906020019080838360005b83811015610ad0578082015181840152602081019050610ab5565b50505050905090810190601f168015610afd5780820380516001836020036101000a031916815260200191505b50868103845289818151815260200191508051906020019080838360005b83811015610b36578082015181840152602081019050610b1b565b50505050905090810190601f168015610b635780820380516001836020036101000a031916815260200191505b50868103835288818151815260200191508051906020019080838360005b83811015610b9c578082015181840152602081019050610b81565b50505050905090810190601f168015610bc95780820380516001836020036101000a031916815260200191505b50868103825287818151815260200191508051906020019080838360005b83811015610c02578082015181840152602081019050610be7565b50505050905090810190601f168015610c2f5780820380516001836020036101000a031916815260200191505b509b50505050505050505050505060405180910390f35b348015610c5257600080fd5b50610c5b6121ac565b60405180878152602001806020018060200180602001806020018060200186810386528b818151815260200191508051906020019080838360005b83811015610cb1578082015181840152602081019050610c96565b50505050905090810190601f168015610cde5780820380516001836020036101000a031916815260200191505b5086810385528a818151815260200191508051906020019080838360005b83811015610d17578082015181840152602081019050610cfc565b50505050905090810190601f168015610d445780820380516001836020036101000a031916815260200191505b50868103845289818151815260200191508051906020019080838360005b83811015610d7d578082015181840152602081019050610d62565b50505050905090810190601f168015610daa5780820380516001836020036101000a031916815260200191505b50868103835288818151815260200191508051906020019080838360005b83811015610de3578082015181840152602081019050610dc8565b50505050905090810190601f168015610e105780820380516001836020036101000a031916815260200191505b50868103825287818151815260200191508051906020019080838360005b83811015610e49578082015181840152602081019050610e2e565b50505050905090810190601f168015610e765780820380516001836020036101000a031916815260200191505b509b50505050505050505050505060405180910390f35b348015610e9957600080fd5b50610ece600480360381019080803573ffffffffffffffffffffffffffffffffffffffff1690602001909291905050506124ce565b005b348015610edc57600080fd5b50610ee5612623565b6040518082815260200191505060405180910390f35b6000809054906101000a900473ffffffffffffffffffffffffffffffffffffffff1673ffffffffffffffffffffffffffffffffffffffff163373ffffffffffffffffffffffffffffffffffffffff16141515610f5657600080fd5b60016008600082825401925050819055506008546002600001819055508460026001019080519060200190610f8c929190612629565b5083600280019080519060200190610fa5929190612629565b508260026003019080519060200190610fbf929190612629565b508160026004019080519060200190610fd9929190612629565b508060026005019080519060200190610ff3929190612629565b5060018060029080600181540180825580915050906001820390600052602060002090600602016000909192909190915060008201548160000155600182018160010190805460018160011615610100020316600290046110559291906126a9565b506002820181600201908054600181600116156101000203166002900461107d9291906126a9565b50600382018160030190805460018160011615610100020316600290046110a59291906126a9565b50600482018160040190805460018160011615610100020316600290046110cd9291906126a9565b50600582018160050190805460018160011615610100020316600290046110f59291906126a9565b50505050505050505050565b6000600180549050905090565b60018181548110151561111d57fe5b9060005260206000209060060201600091509050806000015490806001018054600181600116156101000203166002900480601f0160208091040260200160405190810160405280929190818152602001828054600181600116156101000203166002900480156111cf5780601f106111a4576101008083540402835291602001916111cf565b820191906000526020600020905b8154815290600101906020018083116111b257829003601f168201915b505050505090806002018054600181600116156101000203166002900480601f01602080910402602001604051908101604052809291908181526020018280546001816001161561010002031660029004801561126d5780601f106112425761010080835404028352916020019161126d565b820191906000526020600020905b81548152906001019060200180831161125057829003601f168201915b505050505090806003018054600181600116156101000203166002900480601f01602080910402602001604051908101604052809291908181526020018280546001816001161561010002031660029004801561130b5780601f106112e05761010080835404028352916020019161130b565b820191906000526020600020905b8154815290600101906020018083116112ee57829003601f168201915b505050505090806004018054600181600116156101000203166002900480601f0160208091040260200160405190810160405280929190818152602001828054600181600116156101000203166002900480156113a95780601f1061137e576101008083540402835291602001916113a9565b820191906000526020600020905b81548152906001019060200180831161138c57829003601f168201915b505050505090806005018054600181600116156101000203166002900480601f0160208091040260200160405190810160405280929190818152602001828054600181600116156101000203166002900480156114475780601f1061141c57610100808354040283529160200191611447565b820191906000526020600020905b81548152906001019060200180831161142a57829003601f168201915b5050505050905086565b60006060806060806060600260000154600260010160028001600260030160026004016002600501848054600181600116156101000203166002900480601f01602080910402602001604051908101604052809291908181526020018280546001816001161561010002031660029004801561150e5780601f106114e35761010080835404028352916020019161150e565b820191906000526020600020905b8154815290600101906020018083116114f157829003601f168201915b50505050509450838054600181600116156101000203166002900480601f0160208091040260200160405190810160405280929190818152602001828054600181600116156101000203166002900480156115aa5780601f1061157f576101008083540402835291602001916115aa565b820191906000526020600020905b81548152906001019060200180831161158d57829003601f168201915b50505050509350828054600181600116156101000203166002900480601f0160208091040260200160405190810160405280929190818152602001828054600181600116156101000203166002900480156116465780601f1061161b57610100808354040283529160200191611646565b820191906000526020600020905b81548152906001019060200180831161162957829003601f168201915b50505050509250818054600181600116156101000203166002900480601f0160208091040260200160405190810160405280929190818152602001828054600181600116156101000203166002900480156116e25780601f106116b7576101008083540402835291602001916116e2565b820191906000526020600020905b8154815290600101906020018083116116c557829003601f168201915b50505050509150808054600181600116156101000203166002900480601f01602080910402602001604051908101604052809291908181526020018280546001816001161561010002031660029004801561177e5780601f106117535761010080835404028352916020019161177e565b820191906000526020600020905b81548152906001019060200180831161176157829003601f168201915b50505050509050955095509550955095509550909192939495565b6000606080606080606060008711156117b7576001870396506117bc565b600096505b6001878154811015156117cb57fe5b9060005260206000209060060201600001546001888154811015156117ec57fe5b906000526020600020906006020160010160018981548110151561180c57fe5b906000526020600020906006020160020160018a81548110151561182c57fe5b906000526020600020906006020160030160018b81548110151561184c57fe5b906000526020600020906006020160040160018c81548110151561186c57fe5b9060005260206000209060060201600501848054600181600116156101000203166002900480601f0160208091040260200160405190810160405280929190818152602001828054600181600116156101000203166002900480156119125780601f106118e757610100808354040283529160200191611912565b820191906000526020600020905b8154815290600101906020018083116118f557829003601f168201915b50505050509450838054600181600116156101000203166002900480601f0160208091040260200160405190810160405280929190818152602001828054600181600116156101000203166002900480156119ae5780601f10611983576101008083540402835291602001916119ae565b820191906000526020600020905b81548152906001019060200180831161199157829003601f168201915b50505050509350828054600181600116156101000203166002900480601f016020809104026020016040519081016040528092919081815260200182805460018160011615610100020316600290048015611a4a5780601f10611a1f57610100808354040283529160200191611a4a565b820191906000526020600020905b815481529060010190602001808311611a2d57829003601f168201915b50505050509250818054600181600116156101000203166002900480601f016020809104026020016040519081016040528092919081815260200182805460018160011615610100020316600290048015611ae65780601f10611abb57610100808354040283529160200191611ae6565b820191906000526020600020905b815481529060010190602001808311611ac957829003601f168201915b50505050509150808054600181600116156101000203166002900480601f016020809104026020016040519081016040528092919081815260200182805460018160011615610100020316600290048015611b825780601f10611b5757610100808354040283529160200191611b82565b820191906000526020600020905b815481529060010190602001808311611b6557829003601f168201915b5050505050905095509550955095509550955091939550919395565b6000809054906101000a900473ffffffffffffffffffffffffffffffffffffffff1681565b600060608060608060606000600180805490500390505b6000811015156121a157600181815481101515611bf357fe5b90600052602060002090600602016001016040516020018082805460018160011615610100020316600290048015611c625780601f10611c40576101008083540402835291820191611c62565b820191906000526020600020905b815481529060010190602001808311611c4e575b50509150506040516020818303038152906040526040518082805190602001908083835b602083101515611cab5780518252602082019150602081019050602083039250611c86565b6001836020036101000a038019825116818451168082178552505050505050905001915050604051809103902060001916886040516020018082805190602001908083835b602083101515611d155780518252602082019150602081019050602083039250611cf0565b6001836020036101000a0380198251168184511680821785525050505050509050019150506040516020818303038152906040526040518082805190602001908083835b602083101515611d7e5780518252602082019150602081019050602083039250611d59565b6001836020036101000a038019825116818451168082178552505050505050905001915050604051809103902060001916141561219357600181815481101515611dc457fe5b906000526020600020906006020160000154600182815481101515611de557fe5b9060005260206000209060060201600101600183815481101515611e0557fe5b9060005260206000209060060201600201600184815481101515611e2557fe5b9060005260206000209060060201600301600185815481101515611e4557fe5b9060005260206000209060060201600401600186815481101515611e6557fe5b9060005260206000209060060201600501848054600181600116156101000203166002900480601f016020809104026020016040519081016040528092919081815260200182805460018160011615610100020316600290048015611f0b5780601f10611ee057610100808354040283529160200191611f0b565b820191906000526020600020905b815481529060010190602001808311611eee57829003601f168201915b50505050509450838054600181600116156101000203166002900480601f016020809104026020016040519081016040528092919081815260200182805460018160011615610100020316600290048015611fa75780601f10611f7c57610100808354040283529160200191611fa7565b820191906000526020600020905b815481529060010190602001808311611f8a57829003601f168201915b50505050509350828054600181600116156101000203166002900480601f0160208091040260200160405190810160405280929190818152602001828054600181600116156101000203166002900480156120435780601f1061201857610100808354040283529160200191612043565b820191906000526020600020905b81548152906001019060200180831161202657829003601f168201915b50505050509250818054600181600116156101000203166002900480601f0160208091040260200160405190810160405280929190818152602001828054600181600116156101000203166002900480156120df5780601f106120b4576101008083540402835291602001916120df565b820191906000526020600020905b8154815290600101906020018083116120c257829003601f168201915b50505050509150808054600181600116156101000203166002900480601f01602080910402602001604051908101604052809291908181526020018280546001816001161561010002031660029004801561217b5780601f106121505761010080835404028352916020019161217b565b820191906000526020600020905b81548152906001019060200180831161215e57829003601f168201915b505050505090509650965096509650965096506121a2565b808060019003915050611bda565b5b5091939550919395565b6002806000015490806001018054600181600116156101000203166002900480601f01602080910402602001604051908101604052809291908181526020018280546001816001161561010002031660029004801561224c5780601f106122215761010080835404028352916020019161224c565b820191906000526020600020905b81548152906001019060200180831161222f57829003601f168201915b505050505090806002018054600181600116156101000203166002900480601f0160208091040260200160405190810160405280929190818152602001828054600181600116156101000203166002900480156122ea5780601f106122bf576101008083540402835291602001916122ea565b820191906000526020600020905b8154815290600101906020018083116122cd57829003601f168201915b505050505090806003018054600181600116156101000203166002900480601f0160208091040260200160405190810160405280929190818152602001828054600181600116156101000203166002900480156123885780601f1061235d57610100808354040283529160200191612388565b820191906000526020600020905b81548152906001019060200180831161236b57829003601f168201915b505050505090806004018054600181600116156101000203166002900480601f0160208091040260200160405190810160405280929190818152602001828054600181600116156101000203166002900480156124265780601f106123fb57610100808354040283529160200191612426565b820191906000526020600020905b81548152906001019060200180831161240957829003601f168201915b505050505090806005018054600181600116156101000203166002900480601f0160208091040260200160405190810160405280929190818152602001828054600181600116156101000203166002900480156124c45780601f10612499576101008083540402835291602001916124c4565b820191906000526020600020905b8154815290600101906020018083116124a757829003601f168201915b5050505050905086565b6000809054906101000a900473ffffffffffffffffffffffffffffffffffffffff1673ffffffffffffffffffffffffffffffffffffffff163373ffffffffffffffffffffffffffffffffffffffff1614151561252957600080fd5b600073ffffffffffffffffffffffffffffffffffffffff168173ffffffffffffffffffffffffffffffffffffffff161415151561256557600080fd5b8073ffffffffffffffffffffffffffffffffffffffff166000809054906101000a900473ffffffffffffffffffffffffffffffffffffffff1673ffffffffffffffffffffffffffffffffffffffff167f8be0079c531659141344cd1fd0a4f28419497f9722a3daafe3b4186f6b6457e060405160405180910390a3806000806101000a81548173ffffffffffffffffffffffffffffffffffffffff021916908373ffffffffffffffffffffffffffffffffffffffff16021790555050565b60085481565b828054600181600116156101000203166002900490600052602060002090601f016020900481019282601f1061266a57805160ff1916838001178555612698565b82800160010185558215612698579182015b8281111561269757825182559160200191906001019061267c565b5b5090506126a59190612730565b5090565b828054600181600116156101000203166002900490600052602060002090601f016020900481019282601f106126e2578054855561271f565b8280016001018555821561271f57600052602060002091601f016020900482015b8281111561271e578254825591600101919060010190612703565b5b50905061272c9190612730565b5090565b61275291905b8082111561274e576000816000905550600101612736565b5090565b905600a165627a7a723058205e555577321a1ae906337de0841c1da201b7b9bdc91f21332e3b01b66a39b9270029",
  "source": "pragma solidity ^0.4.0;\r\n\r\nimport \"./Ownable.sol\";\r\n\r\n\r\ncontract CSBD is Ownable {\r\n\r\n  struct CEDStruct {\r\n    uint256 id;\r\n    string cid;\r\n    string fullname;\r\n    string coursename;\r\n    string issuedOn;\r\n    string validUntil;\r\n  } \r\n\r\n    CEDStruct[] public CEDStructArray;\r\n    CEDStruct public CED;\r\n\r\n    uint256 public CEDID =0 ;\r\n\r\n  /* Define variable cert of the type string */\r\n  string cert;\r\n\r\n  /* This runs when the contract is executed */\r\n  constructor () public {\r\n    cert = \"Certificed Senior Blockchain Program\";\r\n  }\r\n\r\n  /* Main function */\r\n  // CSBD - Certified Senior Blockchain Developer - Forked by George Gao from the version of \"CBED20180201\" created by Sean Xun Cao, some warning issues have been fixed for the latest compiler\r\n  // \"CBED20180201\",\"Sean Xun Cao\",\"Certified Blockchain Ethereum Developer\",\"20180218\",\"20280218\"\r\n  function setCED(string _cid, string _fullname,string _coursename,string _issuedOn,string _validUntil ) public onlyOwner {\r\n        CEDID += 1;\r\n        CED.id = CEDID;\r\n        CED.cid = _cid;\r\n        CED.fullname = _fullname;\r\n        CED.coursename = _coursename;\r\n        CED.issuedOn = _issuedOn;\r\n        CED.validUntil = _validUntil;\r\n        \r\n        CEDStructArray.push(CED) -1;\r\n    \r\n  }\r\n\r\n    function getCEDStructByID(uint256 i) constant public returns (uint256 , string , string ,string ,string ,string ) {\r\n      if (i>0) {i = i-1;} \r\n        else { i =0 ;}\r\n      return (CEDStructArray[i].id, CEDStructArray[i].cid,CEDStructArray[i].fullname,CEDStructArray[i].coursename,CEDStructArray[i].issuedOn, CEDStructArray[i].validUntil);\r\n    }\r\n \r\n\r\n    function getCEDStructsByCID(string _cid) constant public returns (uint256 , string , string ,string ,string ,string ) {\r\n      for (uint256 i = (CEDStructArray.length-1); i >= 0  ; i--) {\r\n          if ( keccak256(abi.encodePacked(_cid))==keccak256(abi.encodePacked(CEDStructArray[i].cid)) ) {\r\n            return (CEDStructArray[i].id, CEDStructArray[i].cid,CEDStructArray[i].fullname,CEDStructArray[i].coursename,CEDStructArray[i].issuedOn, CEDStructArray[i].validUntil);\r\n          }\r\n      }    \r\n    }\r\n\r\n\r\n    function countCEDStruct() view public returns (uint256) {\r\n        return CEDStructArray.length;\r\n    }\r\n\r\n  function getlastCED( ) constant public returns (uint256 _id, string _cid, string _fullname,string _coursename,string _issuedOn,string _validUntil) {\r\n    return (CED.id, CED.cid,CED.fullname,CED.coursename,CED.issuedOn, CED.validUntil );\r\n  }\r\n}",
  "sourcePath": "E:\\Project\\contracts\\CSBD.sol",
  "compiler": {
    "name": "solc",
    "version": "0.4.24+commit.e67f0147.Emscripten.clang"
  },
  "schemaVersion": "2.0.1",
  "updatedAt": "2018-10-06T00:20:34.246Z"
}