{
  "contractName": "VotingToken",
  "abi": [
    {
      "constant": true,
      "inputs": [],
      "name": "name",
      "outputs": [
        {
          "name": "",
          "type": "string"
        }
      ],
      "payable": false,
      "stateMutability": "view",
      "type": "function"
    },
    {
      "constant": false,
      "inputs": [
        {
          "name": "_spender",
          "type": "address"
        },
        {
          "name": "_value",
          "type": "uint256"
        }
      ],
      "name": "approve",
      "outputs": [
        {
          "name": "success",
          "type": "bool"
        }
      ],
      "payable": false,
      "stateMutability": "nonpayable",
      "type": "function"
    },
    {
      "constant": true,
      "inputs": [
        {
          "name": "",
          "type": "address"
        }
      ],
      "name": "voterAddrToNameMapping",
      "outputs": [
        {
          "name": "",
          "type": "bytes32"
        }
      ],
      "payable": false,
      "stateMutability": "view",
      "type": "function"
    },
    {
      "constant": true,
      "inputs": [],
      "name": "totalSupply",
      "outputs": [
        {
          "name": "",
          "type": "uint256"
        }
      ],
      "payable": false,
      "stateMutability": "view",
      "type": "function"
    },
    {
      "constant": false,
      "inputs": [
        {
          "name": "_from",
          "type": "address"
        },
        {
          "name": "_to",
          "type": "address"
        },
        {
          "name": "_value",
          "type": "uint256"
        }
      ],
      "name": "transferFrom",
      "outputs": [
        {
          "name": "success",
          "type": "bool"
        }
      ],
      "payable": false,
      "stateMutability": "nonpayable",
      "type": "function"
    },
    {
      "constant": true,
      "inputs": [],
      "name": "decimals",
      "outputs": [
        {
          "name": "",
          "type": "uint8"
        }
      ],
      "payable": false,
      "stateMutability": "view",
      "type": "function"
    },
    {
      "constant": true,
      "inputs": [],
      "name": "contractOwnerAddr",
      "outputs": [
        {
          "name": "",
          "type": "address"
        }
      ],
      "payable": false,
      "stateMutability": "view",
      "type": "function"
    },
    {
      "constant": true,
      "inputs": [
        {
          "name": "",
          "type": "address"
        }
      ],
      "name": "voterAddrToVotedCandIdxMapping",
      "outputs": [
        {
          "name": "",
          "type": "uint8"
        }
      ],
      "payable": false,
      "stateMutability": "view",
      "type": "function"
    },
    {
      "constant": true,
      "inputs": [],
      "name": "version",
      "outputs": [
        {
          "name": "",
          "type": "string"
        }
      ],
      "payable": false,
      "stateMutability": "view",
      "type": "function"
    },
    {
      "constant": true,
      "inputs": [
        {
          "name": "_owner",
          "type": "address"
        }
      ],
      "name": "balanceOf",
      "outputs": [
        {
          "name": "balance",
          "type": "uint256"
        }
      ],
      "payable": false,
      "stateMutability": "view",
      "type": "function"
    },
    {
      "constant": true,
      "inputs": [
        {
          "name": "",
          "type": "uint256"
        }
      ],
      "name": "candidateNames",
      "outputs": [
        {
          "name": "",
          "type": "bytes32"
        }
      ],
      "payable": false,
      "stateMutability": "view",
      "type": "function"
    },
    {
      "constant": true,
      "inputs": [
        {
          "name": "",
          "type": "uint256"
        }
      ],
      "name": "voterAddrRegisteredArray",
      "outputs": [
        {
          "name": "",
          "type": "address"
        }
      ],
      "payable": false,
      "stateMutability": "view",
      "type": "function"
    },
    {
      "constant": true,
      "inputs": [],
      "name": "symbol",
      "outputs": [
        {
          "name": "",
          "type": "string"
        }
      ],
      "payable": false,
      "stateMutability": "view",
      "type": "function"
    },
    {
      "constant": false,
      "inputs": [
        {
          "name": "_to",
          "type": "address"
        },
        {
          "name": "_value",
          "type": "uint256"
        }
      ],
      "name": "transfer",
      "outputs": [
        {
          "name": "success",
          "type": "bool"
        }
      ],
      "payable": false,
      "stateMutability": "nonpayable",
      "type": "function"
    },
    {
      "constant": true,
      "inputs": [
        {
          "name": "",
          "type": "uint8"
        }
      ],
      "name": "candToVotesRcvdMapping",
      "outputs": [
        {
          "name": "",
          "type": "uint8"
        }
      ],
      "payable": false,
      "stateMutability": "view",
      "type": "function"
    },
    {
      "constant": true,
      "inputs": [
        {
          "name": "_owner",
          "type": "address"
        },
        {
          "name": "_spender",
          "type": "address"
        }
      ],
      "name": "allowance",
      "outputs": [
        {
          "name": "remaining",
          "type": "uint256"
        }
      ],
      "payable": false,
      "stateMutability": "view",
      "type": "function"
    },
    {
      "inputs": [
        {
          "name": "_initialAmount",
          "type": "uint256"
        },
        {
          "name": "_tokenName",
          "type": "string"
        },
        {
          "name": "_tokenSymbol",
          "type": "string"
        },
        {
          "name": "candidateNamesIn",
          "type": "bytes32[]"
        }
      ],
      "payable": false,
      "stateMutability": "nonpayable",
      "type": "constructor"
    },
    {
      "anonymous": false,
      "inputs": [
        {
          "indexed": true,
          "name": "_from",
          "type": "address"
        },
        {
          "indexed": true,
          "name": "_to",
          "type": "address"
        },
        {
          "indexed": false,
          "name": "_value",
          "type": "uint256"
        }
      ],
      "name": "Transfer",
      "type": "event"
    },
    {
      "anonymous": false,
      "inputs": [
        {
          "indexed": true,
          "name": "_owner",
          "type": "address"
        },
        {
          "indexed": true,
          "name": "_spender",
          "type": "address"
        },
        {
          "indexed": false,
          "name": "_value",
          "type": "uint256"
        }
      ],
      "name": "Approval",
      "type": "event"
    },
    {
      "constant": true,
      "inputs": [],
      "name": "getAllCandidates",
      "outputs": [
        {
          "name": "",
          "type": "bytes32[]"
        }
      ],
      "payable": false,
      "stateMutability": "view",
      "type": "function"
    },
    {
      "constant": true,
      "inputs": [],
      "name": "getAllRegVoters",
      "outputs": [
        {
          "name": "",
          "type": "address[]"
        }
      ],
      "payable": false,
      "stateMutability": "view",
      "type": "function"
    },
    {
      "constant": false,
      "inputs": [
        {
          "name": "voteraddr",
          "type": "address"
        },
        {
          "name": "voterName",
          "type": "bytes32"
        }
      ],
      "name": "voterRegister",
      "outputs": [
        {
          "name": "success",
          "type": "bool"
        }
      ],
      "payable": false,
      "stateMutability": "nonpayable",
      "type": "function"
    },
    {
      "constant": false,
      "inputs": [
        {
          "name": "voteraddr",
          "type": "address"
        },
        {
          "name": "candIdx",
          "type": "uint8"
        }
      ],
      "name": "votersVote",
      "outputs": [
        {
          "name": "success",
          "type": "bool"
        }
      ],
      "payable": false,
      "stateMutability": "nonpayable",
      "type": "function"
    }
  ],
  "bytecode": "0x60606040526000600a60006101000a81548160ff021916908360ff1602179055506040805190810160405280600481526020017f48302e3100000000000000000000000000000000000000000000000000000000815250600c90805190602001906200006d92919062000194565b5034156200007a57600080fd5b60405162001b3c38038062001b3c8339810160405280805190602001909190805182019190602001805182019190602001805182019190505033600360006101000a81548173ffffffffffffffffffffffffffffffffffffffff021916908373ffffffffffffffffffffffffffffffffffffffff16021790555083600160003373ffffffffffffffffffffffffffffffffffffffff1673ffffffffffffffffffffffffffffffffffffffff168152602001908152602001600020819055508360008190555082600990805190602001906200015792919062000194565b5081600b90805190602001906200017092919062000194565b508060049080519060200190620001899291906200021b565b5050505050620002c3565b828054600181600116156101000203166002900490600052602060002090601f016020900481019282601f10620001d757805160ff191683800117855562000208565b8280016001018555821562000208579182015b8281111562000207578251825591602001919060010190620001ea565b5b50905062000217919062000273565b5090565b82805482825590600052602060002090810192821562000260579160200282015b828111156200025f5782518290600019169055916020019190600101906200023c565b5b5090506200026f91906200029b565b5090565b6200029891905b80821115620002945760008160009055506001016200027a565b5090565b90565b620002c091905b80821115620002bc576000816000905550600101620002a2565b5090565b90565b61186980620002d36000396000f300606060405260043610610112576000357c0100000000000000000000000000000000000000000000000000000000900463ffffffff16806306fdde0314610117578063095ea7b3146101a5578063099163e0146101ff57806318160ddd1461025457806323b872dd1461027d5780632e6997fe146102f6578063313ce567146103605780634147f8811461038f578063434f61cb146103ed5780634cfeebb71461044257806354fd4d501461049557806370a08231146105235780638287e42f14610570578063829603c3146105af57806395d89b4114610612578063a9059cbb146106a0578063abc2a81f146106fa578063ce041b061461073a578063d1e11a4c146107a4578063dd62ed3e14610801575b600080fd5b341561012257600080fd5b61012a61086d565b6040518080602001828103825283818151815260200191508051906020019080838360005b8381101561016a57808201518184015260208101905061014f565b50505050905090810190601f1680156101975780820380516001836020036101000a031916815260200191505b509250505060405180910390f35b34156101b057600080fd5b6101e5600480803573ffffffffffffffffffffffffffffffffffffffff1690602001909190803590602001909190505061090b565b604051808215151515815260200191505060405180910390f35b341561020a57600080fd5b610236600480803573ffffffffffffffffffffffffffffffffffffffff169060200190919050506109fd565b60405180826000191660001916815260200191505060405180910390f35b341561025f57600080fd5b610267610a15565b6040518082815260200191505060405180910390f35b341561028857600080fd5b6102dc600480803573ffffffffffffffffffffffffffffffffffffffff1690602001909190803573ffffffffffffffffffffffffffffffffffffffff16906020019091908035906020019091905050610a1b565b604051808215151515815260200191505060405180910390f35b341561030157600080fd5b610309610cb5565b6040518080602001828103825283818151815260200191508051906020019060200280838360005b8381101561034c578082015181840152602081019050610331565b505050509050019250505060405180910390f35b341561036b57600080fd5b610373610d17565b604051808260ff1660ff16815260200191505060405180910390f35b341561039a57600080fd5b6103d3600480803573ffffffffffffffffffffffffffffffffffffffff1690602001909190803560001916906020019091905050610d2a565b604051808215151515815260200191505060405180910390f35b34156103f857600080fd5b610400610fec565b604051808273ffffffffffffffffffffffffffffffffffffffff1673ffffffffffffffffffffffffffffffffffffffff16815260200191505060405180910390f35b341561044d57600080fd5b610479600480803573ffffffffffffffffffffffffffffffffffffffff16906020019091905050611012565b604051808260ff1660ff16815260200191505060405180910390f35b34156104a057600080fd5b6104a8611032565b6040518080602001828103825283818151815260200191508051906020019080838360005b838110156104e85780820151818401526020810190506104cd565b50505050905090810190601f1680156105155780820380516001836020036101000a031916815260200191505b509250505060405180910390f35b341561052e57600080fd5b61055a600480803573ffffffffffffffffffffffffffffffffffffffff169060200190919050506110d0565b6040518082815260200191505060405180910390f35b341561057b57600080fd5b6105916004808035906020019091905050611119565b60405180826000191660001916815260200191505060405180910390f35b34156105ba57600080fd5b6105d0600480803590602001909190505061113d565b604051808273ffffffffffffffffffffffffffffffffffffffff1673ffffffffffffffffffffffffffffffffffffffff16815260200191505060405180910390f35b341561061d57600080fd5b61062561117c565b6040518080602001828103825283818151815260200191508051906020019080838360005b8381101561066557808201518184015260208101905061064a565b50505050905090810190601f1680156106925780820380516001836020036101000a031916815260200191505b509250505060405180910390f35b34156106ab57600080fd5b6106e0600480803573ffffffffffffffffffffffffffffffffffffffff1690602001909190803590602001909190505061121a565b604051808215151515815260200191505060405180910390f35b341561070557600080fd5b61071e600480803560ff16906020019091905050611373565b604051808260ff1660ff16815260200191505060405180910390f35b341561074557600080fd5b61074d611393565b6040518080602001828103825283818151815260200191508051906020019060200280838360005b83811015610790578082015181840152602081019050610775565b505050509050019250505060405180910390f35b34156107af57600080fd5b6107e7600480803573ffffffffffffffffffffffffffffffffffffffff1690602001909190803560ff16906020019091905050611427565b604051808215151515815260200191505060405180910390f35b341561080c57600080fd5b610857600480803573ffffffffffffffffffffffffffffffffffffffff1690602001909190803573ffffffffffffffffffffffffffffffffffffffff1690602001909190505061173d565b6040518082815260200191505060405180910390f35b60098054600181600116156101000203166002900480601f0160208091040260200160405190810160405280929190818152602001828054600181600116156101000203166002900480156109035780601f106108d857610100808354040283529160200191610903565b820191906000526020600020905b8154815290600101906020018083116108e657829003601f168201915b505050505081565b600081600260003373ffffffffffffffffffffffffffffffffffffffff1673ffffffffffffffffffffffffffffffffffffffff16815260200190815260200160002060008573ffffffffffffffffffffffffffffffffffffffff1673ffffffffffffffffffffffffffffffffffffffff168152602001908152602001600020819055508273ffffffffffffffffffffffffffffffffffffffff163373ffffffffffffffffffffffffffffffffffffffff167f8c5be1e5ebec7d5bd14f71427d1e84f3dd0314c0f7b2291e5b200ac8c7c3b925846040518082815260200191505060405180910390a36001905092915050565b60066020528060005260406000206000915090505481565b60005481565b600080600260008673ffffffffffffffffffffffffffffffffffffffff1673ffffffffffffffffffffffffffffffffffffffff16815260200190815260200160002060003373ffffffffffffffffffffffffffffffffffffffff1673ffffffffffffffffffffffffffffffffffffffff16815260200190815260200160002054905082600160008773ffffffffffffffffffffffffffffffffffffffff1673ffffffffffffffffffffffffffffffffffffffff1681526020019081526020016000205410158015610aec5750828110155b1515610af757600080fd5b82600160008673ffffffffffffffffffffffffffffffffffffffff1673ffffffffffffffffffffffffffffffffffffffff1681526020019081526020016000206000828254019250508190555082600160008773ffffffffffffffffffffffffffffffffffffffff1673ffffffffffffffffffffffffffffffffffffffff168152602001908152602001600020600082825403925050819055507fffffffffffffffffffffffffffffffffffffffffffffffffffffffffffffffff811015610c445782600260008773ffffffffffffffffffffffffffffffffffffffff1673ffffffffffffffffffffffffffffffffffffffff16815260200190815260200160002060003373ffffffffffffffffffffffffffffffffffffffff1673ffffffffffffffffffffffffffffffffffffffff168152602001908152602001600020600082825403925050819055505b8373ffffffffffffffffffffffffffffffffffffffff168573ffffffffffffffffffffffffffffffffffffffff167fddf252ad1be2c89b69c2b068fc378daa952ba7f163c4a11628f55a4df523b3ef856040518082815260200191505060405180910390a360019150509392505050565b610cbd6117c4565b6004805480602002602001604051908101604052809291908181526020018280548015610d0d57602002820191906000526020600020905b81546000191681526020019060010190808311610cf5575b5050505050905090565b600a60009054906101000a900460ff1681565b6000806001806000600360009054906101000a900473ffffffffffffffffffffffffffffffffffffffff1673ffffffffffffffffffffffffffffffffffffffff1673ffffffffffffffffffffffffffffffffffffffff1681526020019081526020016000205410151515610d9d57600080fd5b8060001916600660008673ffffffffffffffffffffffffffffffffffffffff1673ffffffffffffffffffffffffffffffffffffffff1681526020019081526020016000205460001916141515610df257600080fd5b82600660008673ffffffffffffffffffffffffffffffffffffffff1673ffffffffffffffffffffffffffffffffffffffff168152602001908152602001600020816000191690555060078054806001018281610e4e91906117d8565b9160005260206000209001600086909190916101000a81548173ffffffffffffffffffffffffffffffffffffffff021916908373ffffffffffffffffffffffffffffffffffffffff160217905550506001806000600360009054906101000a900473ffffffffffffffffffffffffffffffffffffffff1673ffffffffffffffffffffffffffffffffffffffff1673ffffffffffffffffffffffffffffffffffffffff1681526020019081526020016000206000828254039250508190555060018060008673ffffffffffffffffffffffffffffffffffffffff1673ffffffffffffffffffffffffffffffffffffffff168152602001908152602001600020600082825401925050819055508373ffffffffffffffffffffffffffffffffffffffff16600360009054906101000a900473ffffffffffffffffffffffffffffffffffffffff1673ffffffffffffffffffffffffffffffffffffffff167fddf252ad1be2c89b69c2b068fc378daa952ba7f163c4a11628f55a4df523b3ef60016040518082815260200191505060405180910390a3600191505092915050565b600360009054906101000a900473ffffffffffffffffffffffffffffffffffffffff1681565b60086020528060005260406000206000915054906101000a900460ff1681565b600c8054600181600116156101000203166002900480601f0160208091040260200160405190810160405280929190818152602001828054600181600116156101000203166002900480156110c85780601f1061109d576101008083540402835291602001916110c8565b820191906000526020600020905b8154815290600101906020018083116110ab57829003601f168201915b505050505081565b6000600160008373ffffffffffffffffffffffffffffffffffffffff1673ffffffffffffffffffffffffffffffffffffffff168152602001908152602001600020549050919050565b60048181548110151561112857fe5b90600052602060002090016000915090505481565b60078181548110151561114c57fe5b90600052602060002090016000915054906101000a900473ffffffffffffffffffffffffffffffffffffffff1681565b600b8054600181600116156101000203166002900480601f0160208091040260200160405190810160405280929190818152602001828054600181600116156101000203166002900480156112125780601f106111e757610100808354040283529160200191611212565b820191906000526020600020905b8154815290600101906020018083116111f557829003601f168201915b505050505081565b600081600160003373ffffffffffffffffffffffffffffffffffffffff1673ffffffffffffffffffffffffffffffffffffffff168152602001908152602001600020541015151561126a57600080fd5b81600160003373ffffffffffffffffffffffffffffffffffffffff1673ffffffffffffffffffffffffffffffffffffffff1681526020019081526020016000206000828254039250508190555081600160008573ffffffffffffffffffffffffffffffffffffffff1673ffffffffffffffffffffffffffffffffffffffff168152602001908152602001600020600082825401925050819055508273ffffffffffffffffffffffffffffffffffffffff163373ffffffffffffffffffffffffffffffffffffffff167fddf252ad1be2c89b69c2b068fc378daa952ba7f163c4a11628f55a4df523b3ef846040518082815260200191505060405180910390a36001905092915050565b60056020528060005260406000206000915054906101000a900460ff1681565b61139b611804565b600780548060200260200160405190810160405280929190818152602001828054801561141d57602002820191906000526020600020905b8160009054906101000a900473ffffffffffffffffffffffffffffffffffffffff1673ffffffffffffffffffffffffffffffffffffffff16815260200190600101908083116113d3575b5050505050905090565b6000806000600860008673ffffffffffffffffffffffffffffffffffffffff1673ffffffffffffffffffffffffffffffffffffffff16815260200190815260200160002060009054906101000a900460ff1660ff1614151561148857600080fd5b8060001916600660008673ffffffffffffffffffffffffffffffffffffffff1673ffffffffffffffffffffffffffffffffffffffff1681526020019081526020016000205460001916141515156114de57600080fd5b6000600160008673ffffffffffffffffffffffffffffffffffffffff1673ffffffffffffffffffffffffffffffffffffffff1681526020019081526020016000205411151561152c57600080fd5b60008360ff1611801561154657506004805490508360ff16105b151561155157600080fd5b82600860008673ffffffffffffffffffffffffffffffffffffffff1673ffffffffffffffffffffffffffffffffffffffff16815260200190815260200160002060006101000a81548160ff021916908360ff1602179055506001600560008560ff1660ff16815260200190815260200160002060008282829054906101000a900460ff160192506101000a81548160ff021916908360ff16021790555060018060008673ffffffffffffffffffffffffffffffffffffffff1673ffffffffffffffffffffffffffffffffffffffff168152602001908152602001600020600082825403925050819055506001806000600360009054906101000a900473ffffffffffffffffffffffffffffffffffffffff1673ffffffffffffffffffffffffffffffffffffffff1673ffffffffffffffffffffffffffffffffffffffff16815260200190815260200160002060008282540192505081905550600360009054906101000a900473ffffffffffffffffffffffffffffffffffffffff1673ffffffffffffffffffffffffffffffffffffffff168473ffffffffffffffffffffffffffffffffffffffff167fddf252ad1be2c89b69c2b068fc378daa952ba7f163c4a11628f55a4df523b3ef60016040518082815260200191505060405180910390a3600191505092915050565b6000600260008473ffffffffffffffffffffffffffffffffffffffff1673ffffffffffffffffffffffffffffffffffffffff16815260200190815260200160002060008373ffffffffffffffffffffffffffffffffffffffff1673ffffffffffffffffffffffffffffffffffffffff16815260200190815260200160002054905092915050565b602060405190810160405280600081525090565b8154818355818115116117ff578183600052602060002091820191016117fe9190611818565b5b505050565b602060405190810160405280600081525090565b61183a91905b8082111561183657600081600090555060010161181e565b5090565b905600a165627a7a723058207c2e9fe96476c5972404e0b4115f0755eefe08a57062370a15a17af23db795d60029",
  "source": "/*\r\nThis Token Contract implements the standard token functionality (https://github.com/ethereum/EIPs/issues/20) as well as the following OPTIONAL extras intended for use by humans.\r\n\r\nIn other words. This is intended for deployment in something like a Token Factory or Mist wallet, and then used by humans.\r\nImagine coins, currencies, shares, voting weight, etc.\r\nMachine-based, rapid creation of many tokens would not necessarily need these extra features or will be minted in other manners.\r\n\r\n1) Initial Finite Supply (upon creation one specifies how much is minted).\r\n2) In the absence of a token registry: Optional Decimal, Symbol & Name.\r\n3) Optional approveAndCall() functionality to notify a contract if an approval() has occurred.\r\n\r\n.*/\r\n\r\nimport \"./StandardToken.sol\";\r\n\r\npragma solidity ^0.4.8;\r\n\r\ncontract VotingToken is StandardToken {\r\n    \r\n    //make all state variables public for display and testing \r\n    \r\n    //the address that creates the contract and owns all the tokens initially\r\n    address public contractOwnerAddr;\r\n    \r\n    /* just use candidate index to store the voter choice. But since the uint8 defaults to 0, \r\n    and array index starting with 0, cannot use the 0 array item to store anything,\r\n    the first candidate name will NOT be used, use a placeholder for it.\r\n    */\r\n    //candidate name array. \r\n    bytes32[] public candidateNames;\r\n    //mapping of candidate index in the array above to the name\r\n    //mapping (uint8 => bytes32) candidateIndexToNameMapping;\r\n    // mapping of canddate index to votes received \r\n    mapping (uint8 => uint8) public candToVotesRcvdMapping;\r\n    // mapping of registered voters, each voter (one address) can only register once \r\n    mapping (address => bytes32) public voterAddrToNameMapping;\r\n    address[] public voterAddrRegisteredArray;\r\n    //mapping of voters to correponding voted candidate index, each voter can only vote once.\r\n    mapping (address => uint8) public voterAddrToVotedCandIdxMapping;\r\n\r\n    \r\n\r\n    /* \r\n    get all the candidate names in an array\r\n    */\r\n    function getAllCandidates() view public returns (bytes32[]) {\r\n        return candidateNames;\r\n    }\r\n\r\n    /* \r\n    get all the registered voter names in an array\r\n    */\r\n    function getAllRegVoters() view public returns (address[]) {\r\n        return voterAddrRegisteredArray;\r\n    }\r\n\r\n    /*\r\n    When a user register as a voter, check that the user has not registered then register by \r\n    1. Saving the user the voterAddrToNameMapping\r\n    2. Sending a token to the user.  User can know registration is successful by checking the token received\r\n    */\r\n    function voterRegister(address voteraddr, bytes32 voterName) public returns (bool success) {\r\n        //make sure there is enough tokens left\r\n        require(balances[contractOwnerAddr] >= 1);\r\n\r\n        //check the user has not been resgisterd before, then register\r\n        bytes32 bDefault;  //default value\r\n        require(voterAddrToNameMapping[voteraddr] == bDefault);\r\n        voterAddrToNameMapping[voteraddr] = voterName;\r\n        voterAddrRegisteredArray.push(voteraddr);\r\n        \r\n        balances[contractOwnerAddr] -= 1;\r\n        balances[voteraddr] += 1;\r\n\r\n        Transfer(contractOwnerAddr, voteraddr, 1);\r\n        return true;\r\n    }\r\n    \r\n    /*\r\n    When a voter votes for a candidate,\r\n    1. Check the voter has not voted before, i.e. no voting record exists in the voterAddrToVotedCandIdxMapping.\r\n    2. Check the voter has regsitered, i.e. has a token \r\n    3. If all pass, record the voter's vote by recording the vote and taking the token from the voter.\r\n    */\r\n    function votersVote(address voteraddr, uint8 candIdx) public returns (bool success) {\r\n        //check the voter has not voted yet.\r\n        require(voterAddrToVotedCandIdxMapping[voteraddr] == 0);\r\n        //chekc the voter has registered and has a token not used.\r\n         bytes32 bDefault;  //default value\r\n        require(voterAddrToNameMapping[voteraddr] != bDefault);\r\n        require(balances[voteraddr] > 0);\r\n        //check the cand idx is valid.\r\n        require(candIdx > 0 && candIdx < candidateNames.length);\r\n        \r\n        //record the vote\r\n        voterAddrToVotedCandIdxMapping[voteraddr] = candIdx;\r\n        candToVotesRcvdMapping[candIdx] += 1;  //increase one vote \r\n        \r\n        //take away the token\r\n        balances[voteraddr] -= 1;\r\n        balances[contractOwnerAddr] += 1;\r\n        Transfer(voteraddr, contractOwnerAddr, 1);\r\n        \r\n        return true;\r\n    }\r\n\r\n    /* Public variables of the token */\r\n\r\n    /*\r\n    NOTE:\r\n    The following variables are OPTIONAL vanities. One does not have to include them.\r\n    They allow one to customise the token contract & in no way influences the core functionality.\r\n    Some wallets/interfaces might not even bother to look at this information.\r\n    */\r\n    string public name;                   //fancy name: eg Simon Bucks\r\n    //should only allow 0 for ballot tokens \r\n    uint8 public decimals = 0;                //How many decimals to show. ie. There could 1000 base units with 3 decimals. Meaning 0.980 SBX = 980 base units. It's like comparing 1 wei to 1 ether.\r\n    string public symbol;                 //An identifier: eg SBX\r\n    string public version = 'H0.1';       //human 0.1 standard. Just an arbitrary versioning scheme.\r\n\r\n     function VotingToken(\r\n        uint256 _initialAmount,\r\n        string _tokenName,\r\n        // uint8 _decimalUnits,  \r\n        string _tokenSymbol,\r\n        bytes32[] candidateNamesIn   //note the first one must be a placeholder\r\n        ) public {\r\n        contractOwnerAddr = msg.sender;             //save the contract owner aaddress\r\n        balances[msg.sender] = _initialAmount;               // Give the creator all initial tokens, determining allowed voter number\r\n        totalSupply = _initialAmount;                        // Update total supply\r\n        name = _tokenName;                                   // Set the name for display purposes\r\n        //decimals = _decimalUnits;                          // Amount of decimals for display purposes\r\n        symbol = _tokenSymbol;                               // Set the symbol for display purposes\r\n        candidateNames = candidateNamesIn;                    //set the candidate names by the input names \r\n    }\r\n    \r\n    /*\r\n    overwrite the function in the StandardToken to remove the allowance requirement\r\n    \r\n    function transferFrom(address _from, address _to, uint256 _value) public returns (bool success) {\r\n        //same as above. Replace this line with the following if you want to protect against wrapping uints.\r\n        //require(balances[_from] >= _value && allowed[_from][msg.sender] >= _value && balances[_to] + _value > balances[_to]);\r\n        //uint256 allowance = allowed[_from][msg.sender];\r\n        //require(balances[_from] >= _value && allowance >= _value);\r\n        require(balances[_from] >= _value);\r\n        balances[_to] += _value;\r\n        balances[_from] -= _value;\r\n        //if (allowance < MAX_UINT256) {\r\n        //    allowed[_from][msg.sender] -= _value;\r\n        //}\r\n        Transfer(_from, _to, _value);\r\n        return true;\r\n    }\r\n    */\r\n\r\n\r\n    /* Approves and then calls the receiving contract \r\n    function approveAndCall(address _spender, uint256 _value, bytes _extraData) public returns (bool success) {\r\n        allowed[msg.sender][_spender] = _value;\r\n        Approval(msg.sender, _spender, _value);\r\n\r\n        //call the receiveApproval function on the contract you want to be notified. This crafts the function signature manually so one doesn't have to include a contract in here just for this.\r\n        //receiveApproval(address _from, uint256 _value, address _tokenContract, bytes _extraData)\r\n        //it is assumed when one does this that the call *should* succeed, otherwise one would use vanilla approve instead.\r\n        require(_spender.call(bytes4(bytes32(keccak256(\"receiveApproval(address,uint256,address,bytes)\"))), msg.sender, _value, this, _extraData));\r\n        return true;\r\n    }\r\n    */\r\n    \r\n\r\n}\r\n\r\n",
  "sourcePath": "C:\\Temp\\abc\\VotingProject\\contracts\\VotingToken.sol",
  "compiler": {
    "name": "solc",
    "version": "0.4.19+commit.c4cbbb05.Emscripten.clang"
  },
  "schemaVersion": "2.0.0",
  "updatedAt": "2018-03-23T01:34:20.533Z"
}