{
  "contractName": "CBED",
  "abi": [
    {
      "constant": true,
      "inputs": [
        {
          "name": "",
          "type": "uint256"
        }
      ],
      "name": "CEDStructArray",
      "outputs": [
        {
          "name": "id",
          "type": "uint256"
        },
        {
          "name": "cid",
          "type": "string"
        },
        {
          "name": "fullname",
          "type": "string"
        },
        {
          "name": "coursename",
          "type": "string"
        },
        {
          "name": "issuedOn",
          "type": "string"
        },
        {
          "name": "validUntil",
          "type": "string"
        }
      ],
      "payable": false,
      "stateMutability": "view",
      "type": "function"
    },
    {
      "constant": true,
      "inputs": [],
      "name": "CED",
      "outputs": [
        {
          "name": "id",
          "type": "uint256"
        },
        {
          "name": "cid",
          "type": "string"
        },
        {
          "name": "fullname",
          "type": "string"
        },
        {
          "name": "coursename",
          "type": "string"
        },
        {
          "name": "issuedOn",
          "type": "string"
        },
        {
          "name": "validUntil",
          "type": "string"
        }
      ],
      "payable": false,
      "stateMutability": "view",
      "type": "function"
    },
    {
      "constant": true,
      "inputs": [],
      "name": "CEDID",
      "outputs": [
        {
          "name": "",
          "type": "uint256"
        }
      ],
      "payable": false,
      "stateMutability": "view",
      "type": "function"
    },
    {
      "inputs": [],
      "payable": false,
      "stateMutability": "nonpayable",
      "type": "constructor"
    },
    {
      "constant": false,
      "inputs": [
        {
          "name": "_cid",
          "type": "string"
        },
        {
          "name": "_fullname",
          "type": "string"
        },
        {
          "name": "_coursename",
          "type": "string"
        },
        {
          "name": "_issuedOn",
          "type": "string"
        },
        {
          "name": "_validUntil",
          "type": "string"
        }
      ],
      "name": "setCED",
      "outputs": [],
      "payable": false,
      "stateMutability": "nonpayable",
      "type": "function"
    },
    {
      "constant": true,
      "inputs": [
        {
          "name": "i",
          "type": "uint256"
        }
      ],
      "name": "getCEDStructByID",
      "outputs": [
        {
          "name": "",
          "type": "uint256"
        },
        {
          "name": "",
          "type": "string"
        },
        {
          "name": "",
          "type": "string"
        },
        {
          "name": "",
          "type": "string"
        },
        {
          "name": "",
          "type": "string"
        },
        {
          "name": "",
          "type": "string"
        }
      ],
      "payable": false,
      "stateMutability": "view",
      "type": "function"
    },
    {
      "constant": true,
      "inputs": [
        {
          "name": "_cid",
          "type": "string"
        }
      ],
      "name": "getCEDStructsByCID",
      "outputs": [
        {
          "name": "",
          "type": "uint256"
        },
        {
          "name": "",
          "type": "string"
        },
        {
          "name": "",
          "type": "string"
        },
        {
          "name": "",
          "type": "string"
        },
        {
          "name": "",
          "type": "string"
        },
        {
          "name": "",
          "type": "string"
        }
      ],
      "payable": false,
      "stateMutability": "view",
      "type": "function"
    },
    {
      "constant": true,
      "inputs": [],
      "name": "countCEDStruct",
      "outputs": [
        {
          "name": "",
          "type": "uint256"
        }
      ],
      "payable": false,
      "stateMutability": "view",
      "type": "function"
    },
    {
      "constant": true,
      "inputs": [],
      "name": "getlastCED",
      "outputs": [
        {
          "name": "_id",
          "type": "uint256"
        },
        {
          "name": "_cid",
          "type": "string"
        },
        {
          "name": "_fullname",
          "type": "string"
        },
        {
          "name": "_coursename",
          "type": "string"
        },
        {
          "name": "_issuedOn",
          "type": "string"
        },
        {
          "name": "_validUntil",
          "type": "string"
        }
      ],
      "payable": false,
      "stateMutability": "view",
      "type": "function"
    }
  ],
  "bytecode": "0x6060604052600060075534156200001557600080fd5b6040805190810160405280601b81526020017f4365727469666963656420457468657265756d2050726f6772616d0000000000815250600890805190602001906200006292919062000069565b5062000118565b828054600181600116156101000203166002900490600052602060002090601f016020900481019282601f10620000ac57805160ff1916838001178555620000dd565b82800160010185558215620000dd579182015b82811115620000dc578251825591602001919060010190620000bf565b5b509050620000ec9190620000f0565b5090565b6200011591905b8082111562000111576000816000905550600101620000f7565b5090565b90565b61206880620001286000396000f30060606040526004361061008e576000357c0100000000000000000000000000000000000000000000000000000000900463ffffffff168063042774461461009357806330724d95146101fc57806352f95c4c1461022557806362b2dd3e146105095780638a4ec6731461074e578063ca6060c3146109a1578063cbfd4bf014610c2e578063f30490b014610f04575b600080fd5b341561009e57600080fd5b6101fa600480803590602001908201803590602001908080601f0160208091040260200160405190810160405280939291908181526020018383808284378201915050505050509190803590602001908201803590602001908080601f0160208091040260200160405190810160405280939291908181526020018383808284378201915050505050509190803590602001908201803590602001908080601f0160208091040260200160405190810160405280939291908181526020018383808284378201915050505050509190803590602001908201803590602001908080601f0160208091040260200160405190810160405280939291908181526020018383808284378201915050505050509190803590602001908201803590602001908080601f01602080910402602001604051908101604052809392919081815260200183838082843782019150505050505091905050610f2d565b005b341561020757600080fd5b61020f6110d5565b6040518082815260200191505060405180910390f35b341561023057600080fd5b61024660048080359060200190919050506110e1565b60405180878152602001806020018060200180602001806020018060200186810386528b8181546001816001161561010002031660029004815260200191508054600181600116156101000203166002900480156102e55780601f106102ba576101008083540402835291602001916102e5565b820191906000526020600020905b8154815290600101906020018083116102c857829003601f168201915b505086810385528a8181546001816001161561010002031660029004815260200191508054600181600116156101000203166002900480156103685780601f1061033d57610100808354040283529160200191610368565b820191906000526020600020905b81548152906001019060200180831161034b57829003601f168201915b50508681038452898181546001816001161561010002031660029004815260200191508054600181600116156101000203166002900480156103eb5780601f106103c0576101008083540402835291602001916103eb565b820191906000526020600020905b8154815290600101906020018083116103ce57829003601f168201915b505086810383528881815460018160011615610100020316600290048152602001915080546001816001161561010002031660029004801561046e5780601f106104435761010080835404028352916020019161046e565b820191906000526020600020905b81548152906001019060200180831161045157829003601f168201915b50508681038252878181546001816001161561010002031660029004815260200191508054600181600116156101000203166002900480156104f15780601f106104c6576101008083540402835291602001916104f1565b820191906000526020600020905b8154815290600101906020018083116104d457829003601f168201915b50509b50505050505050505050505060405180910390f35b341561051457600080fd5b61051c611127565b60405180878152602001806020018060200180602001806020018060200186810386528b818151815260200191508051906020019080838360005b83811015610572578082015181840152602081019050610557565b50505050905090810190601f16801561059f5780820380516001836020036101000a031916815260200191505b5086810385528a818151815260200191508051906020019080838360005b838110156105d85780820151818401526020810190506105bd565b50505050905090810190601f1680156106055780820380516001836020036101000a031916815260200191505b50868103845289818151815260200191508051906020019080838360005b8381101561063e578082015181840152602081019050610623565b50505050905090810190601f16801561066b5780820380516001836020036101000a031916815260200191505b50868103835288818151815260200191508051906020019080838360005b838110156106a4578082015181840152602081019050610689565b50505050905090810190601f1680156106d15780820380516001836020036101000a031916815260200191505b50868103825287818151815260200191508051906020019080838360005b8381101561070a5780820151818401526020810190506106ef565b50505050905090810190601f1680156107375780820380516001836020036101000a031916815260200191505b509b50505050505050505050505060405180910390f35b341561075957600080fd5b61076f600480803590602001909190505061148f565b60405180878152602001806020018060200180602001806020018060200186810386528b818151815260200191508051906020019080838360005b838110156107c55780820151818401526020810190506107aa565b50505050905090810190601f1680156107f25780820380516001836020036101000a031916815260200191505b5086810385528a818151815260200191508051906020019080838360005b8381101561082b578082015181840152602081019050610810565b50505050905090810190601f1680156108585780820380516001836020036101000a031916815260200191505b50868103845289818151815260200191508051906020019080838360005b83811015610891578082015181840152602081019050610876565b50505050905090810190601f1680156108be5780820380516001836020036101000a031916815260200191505b50868103835288818151815260200191508051906020019080838360005b838110156108f75780820151818401526020810190506108dc565b50505050905090810190601f1680156109245780820380516001836020036101000a031916815260200191505b50868103825287818151815260200191508051906020019080838360005b8381101561095d578082015181840152602081019050610942565b50505050905090810190601f16801561098a5780820380516001836020036101000a031916815260200191505b509b50505050505050505050505060405180910390f35b34156109ac57600080fd5b6109fc600480803590602001908201803590602001908080601f016020809104026020016040519081016040528093929190818152602001838380828437820191505050505050919050506118b4565b60405180878152602001806020018060200180602001806020018060200186810386528b818151815260200191508051906020019080838360005b83811015610a52578082015181840152602081019050610a37565b50505050905090810190601f168015610a7f5780820380516001836020036101000a031916815260200191505b5086810385528a818151815260200191508051906020019080838360005b83811015610ab8578082015181840152602081019050610a9d565b50505050905090810190601f168015610ae55780820380516001836020036101000a031916815260200191505b50868103845289818151815260200191508051906020019080838360005b83811015610b1e578082015181840152602081019050610b03565b50505050905090810190601f168015610b4b5780820380516001836020036101000a031916815260200191505b50868103835288818151815260200191508051906020019080838360005b83811015610b84578082015181840152602081019050610b69565b50505050905090810190601f168015610bb15780820380516001836020036101000a031916815260200191505b50868103825287818151815260200191508051906020019080838360005b83811015610bea578082015181840152602081019050610bcf565b50505050905090810190601f168015610c175780820380516001836020036101000a031916815260200191505b509b50505050505050505050505060405180910390f35b3415610c3957600080fd5b610c41611de0565b60405180878152602001806020018060200180602001806020018060200186810386528b818154600181600116156101000203166002900481526020019150805460018160011615610100020316600290048015610ce05780601f10610cb557610100808354040283529160200191610ce0565b820191906000526020600020905b815481529060010190602001808311610cc357829003601f168201915b505086810385528a818154600181600116156101000203166002900481526020019150805460018160011615610100020316600290048015610d635780601f10610d3857610100808354040283529160200191610d63565b820191906000526020600020905b815481529060010190602001808311610d4657829003601f168201915b5050868103845289818154600181600116156101000203166002900481526020019150805460018160011615610100020316600290048015610de65780601f10610dbb57610100808354040283529160200191610de6565b820191906000526020600020905b815481529060010190602001808311610dc957829003601f168201915b5050868103835288818154600181600116156101000203166002900481526020019150805460018160011615610100020316600290048015610e695780601f10610e3e57610100808354040283529160200191610e69565b820191906000526020600020905b815481529060010190602001808311610e4c57829003601f168201915b5050868103825287818154600181600116156101000203166002900481526020019150805460018160011615610100020316600290048015610eec5780601f10610ec157610100808354040283529160200191610eec565b820191906000526020600020905b815481529060010190602001808311610ecf57829003601f168201915b50509b50505050505050505050505060405180910390f35b3415610f0f57600080fd5b610f17611e05565b6040518082815260200191505060405180910390f35b600160076000828254019250508190555060075460016000018190555084600180019080519060200190610f62929190611e0b565b508360016002019080519060200190610f7c929190611e0b565b508260016003019080519060200190610f96929190611e0b565b508160016004019080519060200190610fb0929190611e0b565b508060016005019080519060200190610fca929190611e0b565b50600160008054806001018281610fe19190611e8b565b91600052602060002090600602016000600190919091506000820154816000015560018201816001019080546001816001161561010002031660029004611029929190611ebd565b5060028201816002019080546001816001161561010002031660029004611051929190611ebd565b5060038201816003019080546001816001161561010002031660029004611079929190611ebd565b50600482018160040190805460018160011615610100020316600290046110a1929190611ebd565b50600582018160050190805460018160011615610100020316600290046110c9929190611ebd565b50505050505050505050565b60008080549050905090565b6000818154811015156110f057fe5b9060005260206000209060060201600091509050806000015490806001019080600201908060030190806004019080600501905086565b6000611131611f44565b611139611f44565b611141611f44565b611149611f44565b611151611f44565b600160000154600180016001600201600160030160016004016001600501848054600181600116156101000203166002900480601f0160208091040260200160405190810160405280929190818152602001828054600181600116156101000203166002900480156112045780601f106111d957610100808354040283529160200191611204565b820191906000526020600020905b8154815290600101906020018083116111e757829003601f168201915b50505050509450838054600181600116156101000203166002900480601f0160208091040260200160405190810160405280929190818152602001828054600181600116156101000203166002900480156112a05780601f10611275576101008083540402835291602001916112a0565b820191906000526020600020905b81548152906001019060200180831161128357829003601f168201915b50505050509350828054600181600116156101000203166002900480601f01602080910402602001604051908101604052809291908181526020018280546001816001161561010002031660029004801561133c5780601f106113115761010080835404028352916020019161133c565b820191906000526020600020905b81548152906001019060200180831161131f57829003601f168201915b50505050509250818054600181600116156101000203166002900480601f0160208091040260200160405190810160405280929190818152602001828054600181600116156101000203166002900480156113d85780601f106113ad576101008083540402835291602001916113d8565b820191906000526020600020905b8154815290600101906020018083116113bb57829003601f168201915b50505050509150808054600181600116156101000203166002900480601f0160208091040260200160405190810160405280929190818152602001828054600181600116156101000203166002900480156114745780601f1061144957610100808354040283529160200191611474565b820191906000526020600020905b81548152906001019060200180831161145757829003601f168201915b50505050509050955095509550955095509550909192939495565b6000611499611f44565b6114a1611f44565b6114a9611f44565b6114b1611f44565b6114b9611f44565b60008711156114cd576001870396506114d2565b600096505b6000878154811015156114e157fe5b90600052602060002090600602016000015460008881548110151561150257fe5b906000526020600020906006020160010160008981548110151561152257fe5b906000526020600020906006020160020160008a81548110151561154257fe5b906000526020600020906006020160030160008b81548110151561156257fe5b906000526020600020906006020160040160008c81548110151561158257fe5b9060005260206000209060060201600501848054600181600116156101000203166002900480601f0160208091040260200160405190810160405280929190818152602001828054600181600116156101000203166002900480156116285780601f106115fd57610100808354040283529160200191611628565b820191906000526020600020905b81548152906001019060200180831161160b57829003601f168201915b50505050509450838054600181600116156101000203166002900480601f0160208091040260200160405190810160405280929190818152602001828054600181600116156101000203166002900480156116c45780601f10611699576101008083540402835291602001916116c4565b820191906000526020600020905b8154815290600101906020018083116116a757829003601f168201915b50505050509350828054600181600116156101000203166002900480601f0160208091040260200160405190810160405280929190818152602001828054600181600116156101000203166002900480156117605780601f1061173557610100808354040283529160200191611760565b820191906000526020600020905b81548152906001019060200180831161174357829003601f168201915b50505050509250818054600181600116156101000203166002900480601f0160208091040260200160405190810160405280929190818152602001828054600181600116156101000203166002900480156117fc5780601f106117d1576101008083540402835291602001916117fc565b820191906000526020600020905b8154815290600101906020018083116117df57829003601f168201915b50505050509150808054600181600116156101000203166002900480601f0160208091040260200160405190810160405280929190818152602001828054600181600116156101000203166002900480156118985780601f1061186d57610100808354040283529160200191611898565b820191906000526020600020905b81548152906001019060200180831161187b57829003601f168201915b5050505050905095509550955095509550955091939550919395565b60006118be611f44565b6118c6611f44565b6118ce611f44565b6118d6611f44565b6118de611f44565b60008090505b600080549050811015611dd55760008181548110151561190057fe5b9060005260206000209060060201600101604051808280546001816001161561010002031660029004801561196c5780601f1061194a57610100808354040283529182019161196c565b820191906000526020600020905b815481529060010190602001808311611958575b5050915050604051809103902060001916886040518082805190602001908083835b6020831015156119b3578051825260208201915060208101905060208303925061198e565b6001836020036101000a0380198251168184511680821785525050505050509050019150506040518091039020600019161415611dc8576000818154811015156119f957fe5b906000526020600020906006020160000154600082815481101515611a1a57fe5b9060005260206000209060060201600101600083815481101515611a3a57fe5b9060005260206000209060060201600201600084815481101515611a5a57fe5b9060005260206000209060060201600301600085815481101515611a7a57fe5b9060005260206000209060060201600401600086815481101515611a9a57fe5b9060005260206000209060060201600501848054600181600116156101000203166002900480601f016020809104026020016040519081016040528092919081815260200182805460018160011615610100020316600290048015611b405780601f10611b1557610100808354040283529160200191611b40565b820191906000526020600020905b815481529060010190602001808311611b2357829003601f168201915b50505050509450838054600181600116156101000203166002900480601f016020809104026020016040519081016040528092919081815260200182805460018160011615610100020316600290048015611bdc5780601f10611bb157610100808354040283529160200191611bdc565b820191906000526020600020905b815481529060010190602001808311611bbf57829003601f168201915b50505050509350828054600181600116156101000203166002900480601f016020809104026020016040519081016040528092919081815260200182805460018160011615610100020316600290048015611c785780601f10611c4d57610100808354040283529160200191611c78565b820191906000526020600020905b815481529060010190602001808311611c5b57829003601f168201915b50505050509250818054600181600116156101000203166002900480601f016020809104026020016040519081016040528092919081815260200182805460018160011615610100020316600290048015611d145780601f10611ce957610100808354040283529160200191611d14565b820191906000526020600020905b815481529060010190602001808311611cf757829003601f168201915b50505050509150808054600181600116156101000203166002900480601f016020809104026020016040519081016040528092919081815260200182805460018160011615610100020316600290048015611db05780601f10611d8557610100808354040283529160200191611db0565b820191906000526020600020905b815481529060010190602001808311611d9357829003601f168201915b50505050509050965096509650965096509650611dd6565b80806001019150506118e4565b5b5091939550919395565b6001806000015490806001019080600201908060030190806004019080600501905086565b60075481565b828054600181600116156101000203166002900490600052602060002090601f016020900481019282601f10611e4c57805160ff1916838001178555611e7a565b82800160010185558215611e7a579182015b82811115611e79578251825591602001919060010190611e5e565b5b509050611e879190611f58565b5090565b815481835581811511611eb857600602816006028360005260206000209182019101611eb79190611f7d565b5b505050565b828054600181600116156101000203166002900490600052602060002090601f016020900481019282601f10611ef65780548555611f33565b82800160010185558215611f3357600052602060002091601f016020900482015b82811115611f32578254825591600101919060010190611f17565b5b509050611f409190611f58565b5090565b602060405190810160405280600081525090565b611f7a91905b80821115611f76576000816000905550600101611f5e565b5090565b90565b611ff191905b80821115611fed57600080820160009055600182016000611fa49190611ff4565b600282016000611fb49190611ff4565b600382016000611fc49190611ff4565b600482016000611fd49190611ff4565b600582016000611fe49190611ff4565b50600601611f83565b5090565b90565b50805460018160011615610100020316600290046000825580601f1061201a5750612039565b601f0160209004906000526020600020908101906120389190611f58565b5b505600a165627a7a72305820725fadfa4125f84f316714c655a2aedf9bebf017f4b119fb83ba70dd634818350029",
  "source": "pragma solidity ^0.4.0;\r\n\r\n\r\ncontract CBED {\r\n\r\n  struct CEDStruct {\r\n    uint256 id;\r\n    string cid;\r\n    string fullname;\r\n    string coursename;\r\n    string issuedOn;\r\n    string validUntil;\r\n  } \r\n\r\n    CEDStruct[] public CEDStructArray;\r\n    CEDStruct public CED;\r\n\r\n    uint256 public CEDID =0 ;\r\n\r\n  /* Define variable cert of the type string */\r\n  string cert;\r\n\r\n  /* This runs when the contract is executed */\r\n  function CBED() public {\r\n    cert = \"Certificed Ethereum Program\";\r\n  }\r\n\r\n  /* Main function */\r\n  // \"CBED20180201\",\"Sean Xun Cao\",\"Certified Blockchain Ethereum Developer\",\"20180218\",\"20280218\"\r\n  function setCED(string _cid, string _fullname,string _coursename,string _issuedOn,string _validUntil ) public {\r\n        CEDID += 1;\r\n        CED.id = CEDID;\r\n        CED.cid = _cid;\r\n        CED.fullname = _fullname;\r\n        CED.coursename = _coursename;\r\n        CED.issuedOn = _issuedOn;\r\n        CED.validUntil = _validUntil;\r\n        \r\n        CEDStructArray.push(CED) -1;\r\n    \r\n  }\r\n\r\n    function getCEDStructByID(uint256 i) constant public returns (uint256 , string , string ,string ,string ,string ) {\r\n      if (i>0) {i = i-1;} \r\n        else { i =0 ;}\r\n      return (CEDStructArray[i].id, CEDStructArray[i].cid,CEDStructArray[i].fullname,CEDStructArray[i].coursename,CEDStructArray[i].issuedOn, CEDStructArray[i].validUntil);\r\n    }\r\n \r\n\r\n    function getCEDStructsByCID(string _cid) constant public returns (uint256 , string , string ,string ,string ,string ) {\r\n      for (uint256 i = 0; i < CEDStructArray.length ; i++) {\r\n          if ( keccak256(_cid)==keccak256(CEDStructArray[i].cid) ) {\r\n            return (CEDStructArray[i].id, CEDStructArray[i].cid,CEDStructArray[i].fullname,CEDStructArray[i].coursename,CEDStructArray[i].issuedOn, CEDStructArray[i].validUntil);\r\n          }\r\n      }    \r\n    }\r\n\r\n\r\n    function countCEDStruct() view public returns (uint256) {\r\n        return CEDStructArray.length;\r\n    }\r\n\r\n  function getlastCED( ) constant public returns (uint256 _id, string _cid, string _fullname,string _coursename,string _issuedOn,string _validUntil) {\r\n    return (CED.id, CED.cid,CED.fullname,CED.coursename,CED.issuedOn, CED.validUntil );\r\n  }\r\n}",
  "sourcePath": "D:\\temp\\1\\class\\demo1\\contracts\\CBED.sol",
  "compiler": {
    "name": "solc",
    "version": "0.4.19+commit.c4cbbb05.Emscripten.clang"
  },
  "schemaVersion": "1.0.1",
  "updatedAt": "2018-03-15T03:25:59.072Z"
}