{
  "contractName": "WonderEgg",
  "abi": [
    {
      "constant": false,
      "inputs": [
        {
          "name": "newSellPrice",
          "type": "uint256"
        },
        {
          "name": "newBuyPrice",
          "type": "uint256"
        }
      ],
      "name": "setPrices",
      "outputs": [],
      "payable": false,
      "stateMutability": "nonpayable",
      "type": "function"
    },
    {
      "constant": true,
      "inputs": [],
      "name": "name",
      "outputs": [
        {
          "name": "",
          "type": "string"
        }
      ],
      "payable": false,
      "stateMutability": "view",
      "type": "function"
    },
    {
      "constant": false,
      "inputs": [
        {
          "name": "_spender",
          "type": "address"
        },
        {
          "name": "_value",
          "type": "uint256"
        }
      ],
      "name": "approve",
      "outputs": [
        {
          "name": "success",
          "type": "bool"
        }
      ],
      "payable": false,
      "stateMutability": "nonpayable",
      "type": "function"
    },
    {
      "constant": true,
      "inputs": [],
      "name": "totalSupply",
      "outputs": [
        {
          "name": "",
          "type": "uint256"
        }
      ],
      "payable": false,
      "stateMutability": "view",
      "type": "function"
    },
    {
      "constant": true,
      "inputs": [],
      "name": "wonder",
      "outputs": [
        {
          "name": "addr",
          "type": "address"
        },
        {
          "name": "id",
          "type": "uint256"
        },
        {
          "name": "wprice",
          "type": "uint256"
        },
        {
          "name": "idName",
          "type": "bytes32"
        },
        {
          "name": "Description",
          "type": "uint256"
        }
      ],
      "payable": false,
      "stateMutability": "view",
      "type": "function"
    },
    {
      "constant": false,
      "inputs": [
        {
          "name": "_from",
          "type": "address"
        },
        {
          "name": "_to",
          "type": "address"
        },
        {
          "name": "_value",
          "type": "uint256"
        }
      ],
      "name": "transferFrom",
      "outputs": [
        {
          "name": "success",
          "type": "bool"
        }
      ],
      "payable": false,
      "stateMutability": "nonpayable",
      "type": "function"
    },
    {
      "constant": true,
      "inputs": [
        {
          "name": "",
          "type": "uint256"
        }
      ],
      "name": "WonderStructArray",
      "outputs": [
        {
          "name": "addr",
          "type": "address"
        },
        {
          "name": "id",
          "type": "uint256"
        },
        {
          "name": "wprice",
          "type": "uint256"
        },
        {
          "name": "idName",
          "type": "bytes32"
        },
        {
          "name": "Description",
          "type": "uint256"
        }
      ],
      "payable": false,
      "stateMutability": "view",
      "type": "function"
    },
    {
      "constant": true,
      "inputs": [
        {
          "name": "_sender",
          "type": "address"
        }
      ],
      "name": "getetherbalance",
      "outputs": [
        {
          "name": "",
          "type": "uint256"
        }
      ],
      "payable": false,
      "stateMutability": "view",
      "type": "function"
    },
    {
      "constant": false,
      "inputs": [
        {
          "name": "_from",
          "type": "address"
        },
        {
          "name": "_to",
          "type": "address"
        },
        {
          "name": "_value",
          "type": "uint256"
        }
      ],
      "name": "_transfer",
      "outputs": [],
      "payable": true,
      "stateMutability": "payable",
      "type": "function"
    },
    {
      "constant": true,
      "inputs": [],
      "name": "decimals",
      "outputs": [
        {
          "name": "",
          "type": "uint8"
        }
      ],
      "payable": false,
      "stateMutability": "view",
      "type": "function"
    },
    {
      "constant": false,
      "inputs": [
        {
          "name": "_value",
          "type": "uint256"
        }
      ],
      "name": "burn",
      "outputs": [
        {
          "name": "success",
          "type": "bool"
        }
      ],
      "payable": false,
      "stateMutability": "nonpayable",
      "type": "function"
    },
    {
      "constant": true,
      "inputs": [],
      "name": "sellPrice",
      "outputs": [
        {
          "name": "",
          "type": "uint256"
        }
      ],
      "payable": false,
      "stateMutability": "view",
      "type": "function"
    },
    {
      "constant": true,
      "inputs": [
        {
          "name": "",
          "type": "address"
        }
      ],
      "name": "balanceOf",
      "outputs": [
        {
          "name": "",
          "type": "uint256"
        }
      ],
      "payable": false,
      "stateMutability": "view",
      "type": "function"
    },
    {
      "constant": false,
      "inputs": [
        {
          "name": "target",
          "type": "address"
        },
        {
          "name": "mintedAmount",
          "type": "uint256"
        }
      ],
      "name": "mintToken",
      "outputs": [],
      "payable": false,
      "stateMutability": "nonpayable",
      "type": "function"
    },
    {
      "constant": false,
      "inputs": [
        {
          "name": "_from",
          "type": "address"
        },
        {
          "name": "_value",
          "type": "uint256"
        }
      ],
      "name": "burnFrom",
      "outputs": [
        {
          "name": "success",
          "type": "bool"
        }
      ],
      "payable": false,
      "stateMutability": "nonpayable",
      "type": "function"
    },
    {
      "constant": true,
      "inputs": [],
      "name": "buyPrice",
      "outputs": [
        {
          "name": "",
          "type": "uint256"
        }
      ],
      "payable": false,
      "stateMutability": "view",
      "type": "function"
    },
    {
      "constant": true,
      "inputs": [],
      "name": "owner",
      "outputs": [
        {
          "name": "",
          "type": "address"
        }
      ],
      "payable": false,
      "stateMutability": "view",
      "type": "function"
    },
    {
      "constant": true,
      "inputs": [],
      "name": "symbol",
      "outputs": [
        {
          "name": "",
          "type": "string"
        }
      ],
      "payable": false,
      "stateMutability": "view",
      "type": "function"
    },
    {
      "constant": true,
      "inputs": [],
      "name": "wonderID",
      "outputs": [
        {
          "name": "",
          "type": "uint256"
        }
      ],
      "payable": false,
      "stateMutability": "view",
      "type": "function"
    },
    {
      "constant": true,
      "inputs": [
        {
          "name": "",
          "type": "uint256"
        }
      ],
      "name": "wonderAddressArray",
      "outputs": [
        {
          "name": "",
          "type": "address"
        }
      ],
      "payable": false,
      "stateMutability": "view",
      "type": "function"
    },
    {
      "constant": false,
      "inputs": [
        {
          "name": "_to",
          "type": "address"
        },
        {
          "name": "_value",
          "type": "uint256"
        }
      ],
      "name": "transfer",
      "outputs": [],
      "payable": false,
      "stateMutability": "nonpayable",
      "type": "function"
    },
    {
      "constant": true,
      "inputs": [
        {
          "name": "",
          "type": "address"
        }
      ],
      "name": "frozenAccount",
      "outputs": [
        {
          "name": "",
          "type": "bool"
        }
      ],
      "payable": false,
      "stateMutability": "view",
      "type": "function"
    },
    {
      "constant": true,
      "inputs": [],
      "name": "getPrices",
      "outputs": [
        {
          "name": "",
          "type": "uint256"
        },
        {
          "name": "",
          "type": "uint256"
        }
      ],
      "payable": false,
      "stateMutability": "view",
      "type": "function"
    },
    {
      "constant": false,
      "inputs": [
        {
          "name": "_amount",
          "type": "uint256"
        }
      ],
      "name": "buy",
      "outputs": [],
      "payable": true,
      "stateMutability": "payable",
      "type": "function"
    },
    {
      "constant": true,
      "inputs": [
        {
          "name": "",
          "type": "address"
        },
        {
          "name": "",
          "type": "address"
        }
      ],
      "name": "allowance",
      "outputs": [
        {
          "name": "",
          "type": "uint256"
        }
      ],
      "payable": false,
      "stateMutability": "view",
      "type": "function"
    },
    {
      "constant": false,
      "inputs": [
        {
          "name": "_amount",
          "type": "uint256"
        }
      ],
      "name": "sell",
      "outputs": [],
      "payable": true,
      "stateMutability": "payable",
      "type": "function"
    },
    {
      "constant": false,
      "inputs": [
        {
          "name": "target",
          "type": "address"
        },
        {
          "name": "freeze",
          "type": "bool"
        }
      ],
      "name": "freezeAccount",
      "outputs": [],
      "payable": false,
      "stateMutability": "nonpayable",
      "type": "function"
    },
    {
      "constant": false,
      "inputs": [
        {
          "name": "newOwner",
          "type": "address"
        }
      ],
      "name": "transferOwnership",
      "outputs": [],
      "payable": false,
      "stateMutability": "nonpayable",
      "type": "function"
    },
    {
      "inputs": [],
      "payable": true,
      "stateMutability": "payable",
      "type": "constructor"
    },
    {
      "anonymous": false,
      "inputs": [
        {
          "indexed": false,
          "name": "addr",
          "type": "address"
        },
        {
          "indexed": false,
          "name": "id",
          "type": "uint256"
        },
        {
          "indexed": false,
          "name": "wprice",
          "type": "uint256"
        },
        {
          "indexed": false,
          "name": "idName",
          "type": "bytes32"
        },
        {
          "indexed": false,
          "name": "Description",
          "type": "uint256"
        }
      ],
      "name": "wonderInfo",
      "type": "event"
    },
    {
      "anonymous": false,
      "inputs": [
        {
          "indexed": false,
          "name": "target",
          "type": "address"
        },
        {
          "indexed": false,
          "name": "frozen",
          "type": "bool"
        }
      ],
      "name": "FrozenFunds",
      "type": "event"
    },
    {
      "anonymous": false,
      "inputs": [
        {
          "indexed": true,
          "name": "from",
          "type": "address"
        },
        {
          "indexed": true,
          "name": "to",
          "type": "address"
        },
        {
          "indexed": false,
          "name": "value",
          "type": "uint256"
        }
      ],
      "name": "Transfer",
      "type": "event"
    },
    {
      "anonymous": false,
      "inputs": [
        {
          "indexed": true,
          "name": "from",
          "type": "address"
        },
        {
          "indexed": false,
          "name": "value",
          "type": "uint256"
        }
      ],
      "name": "Burn",
      "type": "event"
    },
    {
      "constant": false,
      "inputs": [
        {
          "name": "_address",
          "type": "address"
        },
        {
          "name": "_wprice",
          "type": "uint256"
        },
        {
          "name": "_idName",
          "type": "bytes32"
        },
        {
          "name": "_Description",
          "type": "uint256"
        }
      ],
      "name": "setWonderStruct",
      "outputs": [],
      "payable": false,
      "stateMutability": "nonpayable",
      "type": "function"
    },
    {
      "constant": true,
      "inputs": [],
      "name": "getWonderStructs",
      "outputs": [
        {
          "name": "",
          "type": "address[]"
        }
      ],
      "payable": false,
      "stateMutability": "view",
      "type": "function"
    },
    {
      "constant": true,
      "inputs": [
        {
          "name": "i",
          "type": "uint256"
        }
      ],
      "name": "getWonderStructByID",
      "outputs": [
        {
          "name": "",
          "type": "address"
        },
        {
          "name": "",
          "type": "uint256"
        },
        {
          "name": "",
          "type": "uint256"
        },
        {
          "name": "",
          "type": "bytes32"
        },
        {
          "name": "",
          "type": "uint256"
        }
      ],
      "payable": false,
      "stateMutability": "view",
      "type": "function"
    },
    {
      "constant": true,
      "inputs": [
        {
          "name": "i",
          "type": "uint256"
        },
        {
          "name": "ins",
          "type": "address"
        }
      ],
      "name": "getWonderStructByAddress",
      "outputs": [
        {
          "name": "",
          "type": "address"
        },
        {
          "name": "",
          "type": "uint256"
        },
        {
          "name": "",
          "type": "uint256"
        },
        {
          "name": "",
          "type": "bytes32"
        },
        {
          "name": "",
          "type": "uint256"
        }
      ],
      "payable": false,
      "stateMutability": "view",
      "type": "function"
    },
    {
      "constant": true,
      "inputs": [],
      "name": "getlastWonderStruct",
      "outputs": [
        {
          "name": "",
          "type": "address"
        },
        {
          "name": "",
          "type": "uint256"
        },
        {
          "name": "",
          "type": "uint256"
        },
        {
          "name": "",
          "type": "bytes32"
        },
        {
          "name": "",
          "type": "uint256"
        }
      ],
      "payable": false,
      "stateMutability": "view",
      "type": "function"
    },
    {
      "constant": true,
      "inputs": [],
      "name": "countWonderStructs",
      "outputs": [
        {
          "name": "",
          "type": "uint256"
        }
      ],
      "payable": false,
      "stateMutability": "view",
      "type": "function"
    }
  ],
  "bytecode": "0x60606040526012600360006101000a81548160ff021916908360ff1602179055506305f5e1006007556305f5e10060085560006012556301406f406040805190810160405280600a81526020017f576f6e646572436f696e000000000000000000000000000000000000000000008152506040805190810160405280600381526020017f5744520000000000000000000000000000000000000000000000000000000000815250828282336000806101000a81548173ffffffffffffffffffffffffffffffffffffffff021916908373ffffffffffffffffffffffffffffffffffffffff160217905550600360009054906101000a900460ff1660ff16600a0a8302600481905550600454600560003373ffffffffffffffffffffffffffffffffffffffff1673ffffffffffffffffffffffffffffffffffffffff16815260200190815260200160002081905550816001908051906020019062000165929190620001cb565b5080600290805190602001906200017e929190620001cb565b50505050505050336000806101000a81548173ffffffffffffffffffffffffffffffffffffffff021916908373ffffffffffffffffffffffffffffffffffffffff1602179055506200027a565b828054600181600116156101000203166002900490600052602060002090601f016020900481019282601f106200020e57805160ff19168380011785556200023f565b828001600101855582156200023f579182015b828111156200023e57825182559160200191906001019062000221565b5b5090506200024e919062000252565b5090565b6200027791905b808211156200027357600081600090555060010162000259565b5090565b90565b6120c1806200028a6000396000f3006060604052600436106101ac576000357c0100000000000000000000000000000000000000000000000000000000900463ffffffff16806305fefda7146101b157806306fdde03146101dd578063095ea7b31461026b57806318160ddd146102c55780631a6cc8f6146102ee57806323b872dd1461036757806325edc9af146103e05780632a80d4be146104675780632f9bef291461049057806330e0789e146104dd578063313ce5671461053357806342966c68146105625780634b7503341461059d5780635ff2edf9146105c657806370a082311461063057806379c650681461067d57806379cc6790146106bf5780638620410b146107195780638da5cb5b1461074257806395d89b4114610797578063a216ea1f14610825578063a50ca0a31461084e578063a9059cbb146108b1578063b414d4b6146108f3578063bd9a548b14610944578063c1db9a7014610974578063d03a78ef146109fb578063d96a094a14610a53578063dd62ed3e14610a6b578063e4849b3214610ad7578063e724529c14610aef578063eba08dd814610b33578063f2fde38b14610bd9578063fc05786b14610c12575b600080fd5b34156101bc57600080fd5b6101db6004808035906020019091908035906020019091905050610c8b565b005b34156101e857600080fd5b6101f0610cf8565b6040518080602001828103825283818151815260200191508051906020019080838360005b83811015610230578082015181840152602081019050610215565b50505050905090810190601f16801561025d5780820380516001836020036101000a031916815260200191505b509250505060405180910390f35b341561027657600080fd5b6102ab600480803573ffffffffffffffffffffffffffffffffffffffff16906020019091908035906020019091905050610d96565b604051808215151515815260200191505060405180910390f35b34156102d057600080fd5b6102d8610e23565b6040518082815260200191505060405180910390f35b34156102f957600080fd5b610301610e29565b604051808673ffffffffffffffffffffffffffffffffffffffff1673ffffffffffffffffffffffffffffffffffffffff16815260200185815260200184815260200183600019166000191681526020018281526020019550505050505060405180910390f35b341561037257600080fd5b6103c6600480803573ffffffffffffffffffffffffffffffffffffffff1690602001909190803573ffffffffffffffffffffffffffffffffffffffff16906020019091908035906020019091905050610e6d565b604051808215151515815260200191505060405180910390f35b34156103eb57600080fd5b6104016004808035906020019091905050610f9a565b604051808673ffffffffffffffffffffffffffffffffffffffff1673ffffffffffffffffffffffffffffffffffffffff16815260200185815260200184815260200183600019166000191681526020018281526020019550505050505060405180910390f35b341561047257600080fd5b61047a610fff565b6040518082815260200191505060405180910390f35b341561049b57600080fd5b6104c7600480803573ffffffffffffffffffffffffffffffffffffffff1690602001909190505061100c565b6040518082815260200191505060405180910390f35b610531600480803573ffffffffffffffffffffffffffffffffffffffff1690602001909190803573ffffffffffffffffffffffffffffffffffffffff1690602001909190803590602001909190505061102d565b005b341561053e57600080fd5b610546611131565b604051808260ff1660ff16815260200191505060405180910390f35b341561056d57600080fd5b6105836004808035906020019091905050611144565b604051808215151515815260200191505060405180910390f35b34156105a857600080fd5b6105b0611248565b6040518082815260200191505060405180910390f35b34156105d157600080fd5b6105d961124e565b6040518080602001828103825283818151815260200191508051906020019060200280838360005b8381101561061c578082015181840152602081019050610601565b505050509050019250505060405180910390f35b341561063b57600080fd5b610667600480803573ffffffffffffffffffffffffffffffffffffffff169060200190919050506112e2565b6040518082815260200191505060405180910390f35b341561068857600080fd5b6106bd600480803573ffffffffffffffffffffffffffffffffffffffff169060200190919080359060200190919050506112fa565b005b34156106ca57600080fd5b6106ff600480803573ffffffffffffffffffffffffffffffffffffffff1690602001909190803590602001909190505061146b565b604051808215151515815260200191505060405180910390f35b341561072457600080fd5b61072c611685565b6040518082815260200191505060405180910390f35b341561074d57600080fd5b61075561168b565b604051808273ffffffffffffffffffffffffffffffffffffffff1673ffffffffffffffffffffffffffffffffffffffff16815260200191505060405180910390f35b34156107a257600080fd5b6107aa6116b0565b6040518080602001828103825283818151815260200191508051906020019080838360005b838110156107ea5780820151818401526020810190506107cf565b50505050905090810190601f1680156108175780820380516001836020036101000a031916815260200191505b509250505060405180910390f35b341561083057600080fd5b61083861174e565b6040518082815260200191505060405180910390f35b341561085957600080fd5b61086f6004808035906020019091905050611754565b604051808273ffffffffffffffffffffffffffffffffffffffff1673ffffffffffffffffffffffffffffffffffffffff16815260200191505060405180910390f35b34156108bc57600080fd5b6108f1600480803573ffffffffffffffffffffffffffffffffffffffff16906020019091908035906020019091905050611793565b005b34156108fe57600080fd5b61092a600480803573ffffffffffffffffffffffffffffffffffffffff169060200190919050506117a2565b604051808215151515815260200191505060405180910390f35b341561094f57600080fd5b6109576117c2565b604051808381526020018281526020019250505060405180910390f35b341561097f57600080fd5b61099560048080359060200190919050506117d3565b604051808673ffffffffffffffffffffffffffffffffffffffff1673ffffffffffffffffffffffffffffffffffffffff16815260200185815260200184815260200183600019166000191681526020018281526020019550505050505060405180910390f35b3415610a0657600080fd5b610a51600480803573ffffffffffffffffffffffffffffffffffffffff16906020019091908035906020019091908035600019169060200190919080359060200190919050506118b3565b005b610a696004808035906020019091905050611bce565b005b3415610a7657600080fd5b610ac1600480803573ffffffffffffffffffffffffffffffffffffffff1690602001909190803573ffffffffffffffffffffffffffffffffffffffff16906020019091905050611be6565b6040518082815260200191505060405180910390f35b610aed6004808035906020019091905050611c0b565b005b3415610afa57600080fd5b610b31600480803573ffffffffffffffffffffffffffffffffffffffff169060200190919080351515906020019091905050611c23565b005b3415610b3e57600080fd5b610b73600480803590602001909190803573ffffffffffffffffffffffffffffffffffffffff16906020019091905050611d48565b604051808673ffffffffffffffffffffffffffffffffffffffff1673ffffffffffffffffffffffffffffffffffffffff16815260200185815260200184815260200183600019166000191681526020018281526020019550505050505060405180910390f35b3415610be457600080fd5b610c10600480803573ffffffffffffffffffffffffffffffffffffffff16906020019091905050611ea3565b005b3415610c1d57600080fd5b610c25611f41565b604051808673ffffffffffffffffffffffffffffffffffffffff1673ffffffffffffffffffffffffffffffffffffffff16815260200185815260200184815260200183600019166000191681526020018281526020019550505050505060405180910390f35b6000809054906101000a900473ffffffffffffffffffffffffffffffffffffffff1673ffffffffffffffffffffffffffffffffffffffff163373ffffffffffffffffffffffffffffffffffffffff16141515610ce657600080fd5b81600781905550806008819055505050565b60018054600181600116156101000203166002900480601f016020809104026020016040519081016040528092919081815260200182805460018160011615610100020316600290048015610d8e5780601f10610d6357610100808354040283529160200191610d8e565b820191906000526020600020905b815481529060010190602001808311610d7157829003601f168201915b505050505081565b600081600660003373ffffffffffffffffffffffffffffffffffffffff1673ffffffffffffffffffffffffffffffffffffffff16815260200190815260200160002060008573ffffffffffffffffffffffffffffffffffffffff1673ffffffffffffffffffffffffffffffffffffffff168152602001908152602001600020819055506001905092915050565b60045481565b600b8060000160009054906101000a900473ffffffffffffffffffffffffffffffffffffffff16908060010154908060020154908060030154908060040154905085565b6000600660008573ffffffffffffffffffffffffffffffffffffffff1673ffffffffffffffffffffffffffffffffffffffff16815260200190815260200160002060003373ffffffffffffffffffffffffffffffffffffffff1673ffffffffffffffffffffffffffffffffffffffff168152602001908152602001600020548211151515610efa57600080fd5b81600660008673ffffffffffffffffffffffffffffffffffffffff1673ffffffffffffffffffffffffffffffffffffffff16815260200190815260200160002060003373ffffffffffffffffffffffffffffffffffffffff1673ffffffffffffffffffffffffffffffffffffffff16815260200190815260200160002060008282540392505081905550610f8f84848461102d565b600190509392505050565b600a81815481101515610fa957fe5b90600052602060002090600502016000915090508060000160009054906101000a900473ffffffffffffffffffffffffffffffffffffffff16908060010154908060020154908060030154908060040154905085565b6000601180549050905090565b60008173ffffffffffffffffffffffffffffffffffffffff16319050919050565b80600560008573ffffffffffffffffffffffffffffffffffffffff1673ffffffffffffffffffffffffffffffffffffffff1681526020019081526020016000206000828254039250508190555080600560008473ffffffffffffffffffffffffffffffffffffffff1673ffffffffffffffffffffffffffffffffffffffff168152602001908152602001600020600082825401925050819055508173ffffffffffffffffffffffffffffffffffffffff168373ffffffffffffffffffffffffffffffffffffffff167fddf252ad1be2c89b69c2b068fc378daa952ba7f163c4a11628f55a4df523b3ef836040518082815260200191505060405180910390a3505050565b600360009054906101000a900460ff1681565b600081600560003373ffffffffffffffffffffffffffffffffffffffff1673ffffffffffffffffffffffffffffffffffffffff168152602001908152602001600020541015151561119457600080fd5b81600560003373ffffffffffffffffffffffffffffffffffffffff1673ffffffffffffffffffffffffffffffffffffffff16815260200190815260200160002060008282540392505081905550816004600082825403925050819055503373ffffffffffffffffffffffffffffffffffffffff167fcc16f5dbb4873280815c1ee09dbd06736cffcc184412cf7a71a0fdb75d397ca5836040518082815260200191505060405180910390a260019050919050565b60075481565b611256611f98565b60118054806020026020016040519081016040528092919081815260200182805480156112d857602002820191906000526020600020905b8160009054906101000a900473ffffffffffffffffffffffffffffffffffffffff1673ffffffffffffffffffffffffffffffffffffffff168152602001906001019080831161128e575b5050505050905090565b60056020528060005260406000206000915090505481565b6000809054906101000a900473ffffffffffffffffffffffffffffffffffffffff1673ffffffffffffffffffffffffffffffffffffffff163373ffffffffffffffffffffffffffffffffffffffff1614151561135557600080fd5b80600560008473ffffffffffffffffffffffffffffffffffffffff1673ffffffffffffffffffffffffffffffffffffffff16815260200190815260200160002060008282540192505081905550806004600082825401925050819055503073ffffffffffffffffffffffffffffffffffffffff1660007fddf252ad1be2c89b69c2b068fc378daa952ba7f163c4a11628f55a4df523b3ef836040518082815260200191505060405180910390a38173ffffffffffffffffffffffffffffffffffffffff163073ffffffffffffffffffffffffffffffffffffffff167fddf252ad1be2c89b69c2b068fc378daa952ba7f163c4a11628f55a4df523b3ef836040518082815260200191505060405180910390a35050565b600081600560008573ffffffffffffffffffffffffffffffffffffffff1673ffffffffffffffffffffffffffffffffffffffff16815260200190815260200160002054101515156114bb57600080fd5b600660008473ffffffffffffffffffffffffffffffffffffffff1673ffffffffffffffffffffffffffffffffffffffff16815260200190815260200160002060003373ffffffffffffffffffffffffffffffffffffffff1673ffffffffffffffffffffffffffffffffffffffff16815260200190815260200160002054821115151561154657600080fd5b81600560008573ffffffffffffffffffffffffffffffffffffffff1673ffffffffffffffffffffffffffffffffffffffff1681526020019081526020016000206000828254039250508190555081600660008573ffffffffffffffffffffffffffffffffffffffff1673ffffffffffffffffffffffffffffffffffffffff16815260200190815260200160002060003373ffffffffffffffffffffffffffffffffffffffff1673ffffffffffffffffffffffffffffffffffffffff16815260200190815260200160002060008282540392505081905550816004600082825403925050819055508273ffffffffffffffffffffffffffffffffffffffff167fcc16f5dbb4873280815c1ee09dbd06736cffcc184412cf7a71a0fdb75d397ca5836040518082815260200191505060405180910390a26001905092915050565b60085481565b6000809054906101000a900473ffffffffffffffffffffffffffffffffffffffff1681565b60028054600181600116156101000203166002900480601f0160208091040260200160405190810160405280929190818152602001828054600181600116156101000203166002900480156117465780601f1061171b57610100808354040283529160200191611746565b820191906000526020600020905b81548152906001019060200180831161172957829003601f168201915b505050505081565b60125481565b60118181548110151561176357fe5b90600052602060002090016000915054906101000a900473ffffffffffffffffffffffffffffffffffffffff1681565b61179e33838361102d565b5050565b60096020528060005260406000206000915054906101000a900460ff1681565b600080600754600854915091509091565b6000806000806000600a868154811015156117ea57fe5b906000526020600020906005020160000160009054906101000a900473ffffffffffffffffffffffffffffffffffffffff16600a8781548110151561182b57fe5b906000526020600020906005020160010154600a8881548110151561184c57fe5b906000526020600020906005020160020154600a8981548110151561186d57fe5b906000526020600020906005020160030154600a8a81548110151561188e57fe5b9060005260206000209060050201600401549450945094509450945091939590929450565b601060008573ffffffffffffffffffffffffffffffffffffffff1673ffffffffffffffffffffffffffffffffffffffff168152602001908152602001600020600b6000820160009054906101000a900473ffffffffffffffffffffffffffffffffffffffff168160000160006101000a81548173ffffffffffffffffffffffffffffffffffffffff021916908373ffffffffffffffffffffffffffffffffffffffff16021790555060018201548160010155600282015481600201556003820154816003019060001916905560048201548160040155905050600160126000828254019250508190555083600b60000160006101000a81548173ffffffffffffffffffffffffffffffffffffffff021916908373ffffffffffffffffffffffffffffffffffffffff160217905550601254600b6001018190555082600b6002018190555081600b600301816000191690555080600b60040181905550600160118054806001018281611a259190611fac565b9160005260206000209001600087909190916101000a81548173ffffffffffffffffffffffffffffffffffffffff021916908373ffffffffffffffffffffffffffffffffffffffff16021790555050506001600a8054806001018281611a8b9190611fd8565b91600052602060002090600502016000600b90919091506000820160009054906101000a900473ffffffffffffffffffffffffffffffffffffffff168160000160006101000a81548173ffffffffffffffffffffffffffffffffffffffff021916908373ffffffffffffffffffffffffffffffffffffffff16021790555060018201548160010155600282015481600201556003820154816003019060001916905560048201548160040155505050507f408403a6cdcf119eb490ab1b14bd3cd30f1ab45d591ada31e1eaae8c804eabd384601254858585604051808673ffffffffffffffffffffffffffffffffffffffff1673ffffffffffffffffffffffffffffffffffffffff16815260200185815260200184815260200183600019166000191681526020018281526020019550505050505060405180910390a150505050565b600060085482029050611be230338361102d565b5050565b6006602052816000526040600020602052806000526040600020600091509150505481565b600060075482029050611c1f33308361102d565b5050565b6000809054906101000a900473ffffffffffffffffffffffffffffffffffffffff1673ffffffffffffffffffffffffffffffffffffffff163373ffffffffffffffffffffffffffffffffffffffff16141515611c7e57600080fd5b80600960008473ffffffffffffffffffffffffffffffffffffffff1673ffffffffffffffffffffffffffffffffffffffff16815260200190815260200160002060006101000a81548160ff0219169083151502179055507f48335238b4855f35377ed80f164e8c6f3c366e54ac00b96a6402d4a9814a03a58282604051808373ffffffffffffffffffffffffffffffffffffffff1673ffffffffffffffffffffffffffffffffffffffff168152602001821515151581526020019250505060405180910390a15050565b6000806000806000600a87815481101515611d5f57fe5b906000526020600020906005020160000160009054906101000a900473ffffffffffffffffffffffffffffffffffffffff1673ffffffffffffffffffffffffffffffffffffffff168673ffffffffffffffffffffffffffffffffffffffff161415611e9857600a87815481101515611dd357fe5b906000526020600020906005020160000160009054906101000a900473ffffffffffffffffffffffffffffffffffffffff16600a88815481101515611e1457fe5b906000526020600020906005020160010154600a89815481101515611e3557fe5b906000526020600020906005020160020154600a8a815481101515611e5657fe5b906000526020600020906005020160030154600a8b815481101515611e7757fe5b90600052602060002090600502016004015494509450945094509450611e99565b5b9295509295909350565b6000809054906101000a900473ffffffffffffffffffffffffffffffffffffffff1673ffffffffffffffffffffffffffffffffffffffff163373ffffffffffffffffffffffffffffffffffffffff16141515611efe57600080fd5b806000806101000a81548173ffffffffffffffffffffffffffffffffffffffff021916908373ffffffffffffffffffffffffffffffffffffffff16021790555050565b6000806000806000600b60000160009054906101000a900473ffffffffffffffffffffffffffffffffffffffff16600b60010154600b60020154600b60030154600b60040154945094509450945094509091929394565b602060405190810160405280600081525090565b815481835581811511611fd357818360005260206000209182019101611fd2919061200a565b5b505050565b81548183558181151161200557600502816005028360005260206000209182019101612004919061202f565b5b505050565b61202c91905b80821115612028576000816000905550600101612010565b5090565b90565b61209291905b8082111561208e57600080820160006101000a81549073ffffffffffffffffffffffffffffffffffffffff0219169055600182016000905560028201600090556003820160009055600482016000905550600501612035565b5090565b905600a165627a7a72305820a8762401d284a3e0b2b6517a319770baac47a24583bdade3c81a1abf7af05b980029",
  "source": "pragma solidity ^0.4.18;\r\n\r\nimport \"./WonderToken.sol\";\r\n\r\ncontract WonderEgg is WonderToken{\r\n    \r\n  struct WonderStruct {\r\n    address addr;\r\n    uint256 id;\r\n    uint256 wprice;\r\n    bytes32 idName;\r\n    uint256 Description;\r\n  } \r\n\r\n    WonderStruct[] public WonderStructArray;\r\n    WonderStruct public wonder;\r\n\r\n    mapping (address => WonderStruct) wonders;\r\n    address[] public wonderAddressArray;\r\n    \r\n    uint256 public wonderID =0 ;\r\n\r\n    event wonderInfo(\r\n        address addr,\r\n        uint256 id,\r\n        uint256 wprice,\r\n        bytes32 idName,\r\n        uint256 Description\r\n    ) ;\r\n    \r\n    function WonderEgg() WonderToken(21000000,\"WonderCoin\",\"WDR\") payable public {\r\n        owner = msg.sender;\r\n    }\r\n    \r\n    function setWonderStruct(address _address, uint256 _wprice, bytes32 _idName, uint256 _Description) public {\r\n\r\n        wonder = wonders[_address];\r\n        wonderID += 1;\r\n        wonder.addr = _address;\r\n        wonder.id = wonderID;\r\n        wonder.wprice = _wprice;\r\n        wonder.idName = _idName;\r\n        wonder.Description = _Description;\r\n        \r\n        wonderAddressArray.push(_address) -1;\r\n        \r\n        WonderStructArray.push(wonder) -1;\r\n        wonderInfo(_address,wonderID, _wprice, _idName, _Description) ;\r\n        \r\n    }\r\n\r\n    function getWonderStructs() view public returns (address[]) {\r\n            return (wonderAddressArray); \r\n    }\r\n\r\n    function getWonderStructByID(uint256 i) view public returns (address, uint256 , uint256 , bytes32 , uint256) {\r\n      return (WonderStructArray[i].addr,WonderStructArray[i].id, WonderStructArray[i].wprice, WonderStructArray[i].idName, WonderStructArray[i].Description);\r\n    }\r\n\r\n    function getWonderStructByAddress(uint256 i, address ins) view public returns (address, uint256 , uint256 , bytes32 , uint256) {\r\n\r\n        if (ins == WonderStructArray[i].addr){\r\n            return (WonderStructArray[i].addr,WonderStructArray[i].id, WonderStructArray[i].wprice, WonderStructArray[i].idName, WonderStructArray[i].Description);\r\n        }\r\n        \r\n    }\r\n\r\n\r\n    function getlastWonderStruct() view public returns (address, uint256 , uint256 , bytes32 , uint256) {\r\n            return (wonder.addr,wonder.id,wonder.wprice,wonder.idName,wonder.Description  );\r\n    }\r\n\r\n    function countWonderStructs() view public returns (uint256) {\r\n        return wonderAddressArray.length;\r\n    }\r\n    \r\n}",
  "sourcePath": "D:\\temp\\1\\class\\demo1\\contracts\\WonderEgg.sol",
  "compiler": {
    "name": "solc",
    "version": "0.4.19+commit.c4cbbb05.Emscripten.clang"
  },
  "schemaVersion": "1.0.1",
  "updatedAt": "2018-03-18T13:37:18.783Z"
}